:100000000C94FC000C9424010C9424010C94240105
:100010000C9424010C9424010C9424010C942401CC
:100020000C9424010C9424010C94E2070C942401F8
:100030000C9424010C9424010C9424010C942401AC
:100040000C9424010C9424010C9424010C9424019C
:100050000C9424010C9424010C9424010C94EF04BE
:100060000C9424010C94B1040C948B040C94240182
:100070000C9424010C9424010C9424010C9424016C
:100080000C9424010C9424010C9424010C9424015C
:100090000C9424010C9424010C9424010C9424014C
:1000A0000C9424010C9424010C942401E008070909
:1000B000D40A0709D40A4F097209D40A9B0AAE0A66
:1000C00005010905A101150025013500450175014E
:1000D0009510050919012910810205012507463BE4
:1000E0000175049501651409398142650095018106
:1000F0000126FF0046FF0009300931093209357534
:1001000008950481020600FF0920950181020A2159
:100110002695089102C00902290001010080FA0910
:100120000400000203000000092111010001225611
:100130000007050203400010070581034000041278
:10014000010002000000400D0F92000001010200BA
:1001500001240350004F004B004B0045004E00208F
:100160000043004F004E00540052004F004C004C22
:10017000004500520000001C0348004F0052004997
:1001800000200043004F002E002C004C005400447F
:10019000002E0000000403090400000000250028D0
:1001A000002B002E00310000000000240027002A50
:1001B000002D0030000404040404030405020202BC
:1001C00002040302020202060606060606040402F0
:1001D0000202040404080201104080401020408004
:1001E000408008020401804020100201108010208D
:1001F00040402000B214FE0C11241FBECFEFDAE005
:10020000DEBFCDBF12E0A0E0B1E0ECE4F0E302C05D
:1002100005900D92AC36B107D9F723E0ACE6B2E019
:1002200001C01D92A93EB207E1F710E0CBEFD0E08C
:1002300004C02197FE010E94CE15CA3FD107C9F71D
:100240000E94020D0C9419180C9400000895CF928E
:10025000DF92EF92FF920F931F93CF93DF936C0186
:100260007A018B01C0E0D0E0CE15DF0589F0D8011E
:100270006D918D01D601ED91FC910190F081E02D01
:10028000C6010995892B11F47E0102C02196ECCF9D
:10029000C701DF91CF911F910F91FF90EF90DF90F9
:1002A000CF900895FC01918D828D981761F0828D19
:1002B000DF01A80FB11D5D968C91928D9F5F9F739A
:1002C000928F90E008958FEF9FEF0895FC01918D3C
:1002D000828D981731F0828DE80FF11D858D90E0A9
:1002E00008958FEF9FEF0895FC01918D228D892F46
:1002F00090E0805C9F4F821B91098F73992708952E
:100300008AE892E00E94740121E0892B09F420E040
:10031000822F0895FC01848DDF01A80FB11DA35A1F
:10032000BF4F2C91848D90E001968F739927848F15
:10033000A689B7892C93A089B1898C9180648C930C
:10034000938D848D981306C00288F389E02D8081F7
:100350008F7D80830895EF92FF920F931F93CF9329
:10036000DF93EC0181E0888F9B8D8C8D981305C005
:10037000E889F989808185FD24C0F62E0B8D10E077
:100380000F5F1F4F0F731127E02E8C8DE8120CC0EA
:100390000FB607FCFACFE889F989808185FFF5CF90
:1003A000CE010E948A01F1CF8B8DFE01E80FF11D75
:1003B000E35AFF4FF0820B8FEA89FB8980818062CC
:1003C00007C0EE89FF896083E889F98980818064AC
:1003D000808381E090E0DF91CF911F910F91FF909A
:1003E000EF900895CF93DF93EC01888D8823C9F0B7
:1003F000EA89FB89808185FD05C0A889B9898C912E
:1004000086FD0FC00FB607FCF5CF808185FFF2CFC8
:10041000A889B9898C9185FFEDCFCE010E948A0110
:10042000E7CFDF91CF91089580E090E0892B29F00C
:100430000E94800181110C94000008952091E40035
:100440003091E50095E64091EC00842F817040FFEB
:1004500022C08091E80080FD1CC08091800288232A
:1004600091F0853091F08091EB0085FD10C04091B6
:10047000E4005091E5004217530729F39A01915087
:1004800011F784E0089582E0089583E0089581E003
:10049000089580E008954091E80042FFDECF08957E
:1004A00080916C0287FF11C08091E80082FD05C039
:1004B000809180028111F8CF11C08091E8008B7784
:1004C0000BC080918002882349F08091E80080FF72
:1004D000F8CF8091E8008E778093E80008950E941D
:1004E000CB17CF93DF93EC0188819981009711F0AE
:1004F0000E946916198218821D821C821B821A8230
:10050000DF91CF9108950F931F93CF93DF93EC0169
:1005100088819981009729F02A813B812617370726
:1005200088F48B016F5F7F4F0E940117009761F085
:10053000998388831B830A832C813D81232B11F4AB
:10054000FC01108281E001C080E0DF91CF911F911A
:100550000F910895EF92FF920F931F93CF93DF9324
:10056000EC017B018A01BA010E948302811104C05F
:10057000CE010E94710207C01D830C83B7018881E0
:1005800099810E94F817CE01DF91CF911F910F91B1
:10059000FF90EF900895CF93DF93FC012481358184
:1005A000232B71F0FB01DC01CD91DC916081718125
:1005B000CE010E94FF17009719F08C1B9D0B02C003
:1005C0008FEF9FEFDF91CF910895CF93DF93FC01E1
:1005D00024813581232B69F0C081D181062E000C46
:1005E000770BCE010E94E417009719F08C1B9D0B2E
:1005F00002C08FEF9FEFDF91CF910895FC0124811E
:100600003581232B31F421E061157105A1F0FB0147
:1006100008C0FC01808191816115710531F421E0F0
:10062000FC018081882339F005C00E94EF1721E08A
:10063000892B09F020E0822F0895EF92FF920F930B
:100640001F93CF93DF93FC012481358161157105E0
:1006500011F480E019C041155105A9F07B01EC01AE
:100660008A01020F131FB8010E948302882389F3B5
:10067000288139818C819D81B701820F931F0E944F
:10068000F8171D830C8381E0DF91CF911F910F91AB
:10069000FF90EF900895CF93DF93EC016115710502
:1006A00061F0FB0101900020E9F73197AF01461B93
:1006B000570B0E941D03811103C0CE010E947102DD
:1006C000CE01DF91CF910895CF93DF93EC01FB0131
:1006D00044815581608171810E941D03811103C095
:1006E000CE010E947102CE01DF91CF910895CF9388
:1006F000DF93EC016115710559F0FB0101900020B9
:10070000E9F73197AF01461B570B0E94AA0202C0BE
:100710000E947102CE01DF91CF910895CF93DF93B4
:10072000EC01FB018617970761F06081718161150B
:10073000710529F0448155810E94AA0202C00E94DD
:100740007102CE01DF91CF9108950F931F93CF9344
:10075000DF938C01EB01FC01808191810097B1F066
:10076000688179816115710579F0428153812C810D
:100770003D814217530740F00E94F8178C819D81FC
:10078000F8019583848313C00E946916888199813A
:10079000F801918380838A819B81938382838C81FA
:1007A0009D8195838483198218821B821A821D82FF
:1007B0001C82DF91CF911F910F910895FC018081E0
:1007C00091810C9469160F931F93CF93DF93CDB74C
:1007D000DEB762970FB6F894DEBF0FBECDBF8C01B7
:1007E000CB01F801118210821382128215821482C9
:1007F00050E0BE016F5F7F4F0E942C15BE016F5FFE
:100800007F4FC8010E94770362960FB6F894DEBF4F
:100810000FBECDBFDF91CF911F910F910895CF9360
:10082000DF9300D0CDB7DEB7FC01118210821382B6
:1008300012821582148269831A82BE016F5F7F4F14
:100840000E9477030F900F90DF91CF910895FC01E4
:100850001182108213821282158214820C948E03EC
:10086000FC0111821082138212821582148261159A
:10087000710551F0FB0101900020E9F73197AF01BC
:10088000461B570B0C94AA020895BF92CF92DF9299
:10089000EF92FF920F931F93CF93DF937C016B0135
:1008A0008A01E9012417350720F4812F8901C42F1B
:1008B000D82F6BE672E0C7010E943004D60114966F
:1008C0008D919C91159708171907D0F48C179D07E7
:1008D00008F4EC01D601ED91FC911197EC0FFD1F8E
:1008E000B08010824D915C91BA01600F711FC701F9
:1008F0000E947703D601ED91FC91EC0FFD1FB082B1
:10090000C701DF91CF911F910F91FF90EF90DF9082
:10091000CF90BF9008951F920F920FB60F9211249F
:100920002F933F934F935F936F937F938F939F93F7
:10093000AF93BF93EF93FF938AE892E00E948A01FE
:10094000FF91EF91BF91AF919F918F917F916F91A7
:100950005F914F913F912F910F900FBE0F901F907D
:1009600018951F920F920FB60F9211242F938F9309
:100970009F93EF93FF93E0919A02F0919B02808105
:10098000E091A002F091A10282FD12C090818091BD
:10099000A3028F5F8F732091A402821751F0E09120
:1009A000A302F0E0E657FD4F958F8093A30201C0AC
:1009B0008081FF91EF919F918F912F910F900FBEAA
:1009C0000F901F9018952FB7F8946091790270914D
:1009D0007A0280917B0290917C022FBF08951F9232
:1009E0000F920FB60F9211242F933F938F939F93E3
:1009F000AF93BF938091790290917A02A0917B028C
:100A0000B0917C023091780223E0230F2D3720F43F
:100A10000196A11DB11D05C026E8230F0296A11D58
:100A2000B11D209378028093790290937A02A0936B
:100A30007B02B0937C028091740290917502A09128
:100A40007602B09177020196A11DB11D80937402C8
:100A500090937502A0937602B0937702BF91AF9105
:100A60009F918F913F912F910F900FBE0F901F90EC
:100A70001895CF93DF93EC011982188220E830E0BB
:100A80003B832A838FEF90E09D838C831F821E829D
:100A9000998788879B878A871D861C8680E490E0DB
:100AA0009F878E8740EC50E0598B488B5B8B4A8B3D
:100AB0009D8B8C8B41E050E05F8B4E8B42E050E091
:100AC000598F488F44E050E05B8F4A8F48E050E0F8
:100AD0005D8F4C8F40E150E05F8F4E8F40E250E0E1
:100AE00059A348A39BA38AA33DA32CA380E091E034
:100AF0009FA38EA380E092E099A788A780E094E06E
:100B00009BA78AA780E098E09DA78CA780E090E152
:100B10009FA78EA780E090E299AB88AB1AAA1BAA88
:100B20001CAA1DAA0E94E3046EAB7FAB88AF99AFED
:100B3000DF91CF9108950C9489150C948115CF9273
:100B4000DF92EF92FF920F931F93CF93DF93CDB776
:100B5000DEB762970FB6F894DEBF0FBECDBF8B0134
:100B600066E171E0CE0107960E943004BE01695F24
:100B70007F4FC8010E94CB027C0168E171E0CE0189
:100B800001960E943004BE016F5F7F4FC8010E9432
:100B9000CB02AC014F5F5F4F9701B801CE010D96BC
:100BA0000E9445048D859E85009729F00E940515B9
:100BB0006B017C0103C0C12CD12C7601CE010D96B6
:100BC0000E94DE03CE0101960E94DE03CE0107964D
:100BD0000E94DE03C60162960FB6F894DEBF0FBE18
:100BE000CDBFDF91CF911F910F91FF90EF90DF90DC
:100BF000CF900895EF92FF920F931F93CF93DF93BF
:100C000000D000D000D0CDB7DEB78C01F62ECE01DB
:100C100001960E940F04CE0101960E94C10BE82E9E
:100C2000CE0101960E94DE0381E4E81204C0F801BF
:100C3000828D938D85C16F2DCE0101960E940F0488
:100C4000CE0101960E94C10BE82ECE0101960E94B2
:100C5000DE03F2E4EF1204C0F801808D918D70C1C3
:100C60006F2DCE0101960E940F04CE0101960E94C5
:100C7000C10BE82ECE0101960E94DE03F8E5EF12CB
:100C800004C0F801848D958D5BC16F2DCE01019656
:100C90000E940F04CE0101960E94C10BE82ECE01E6
:100CA00001960E94DE03F9E5EF1204C0F80186897F
:100CB000978946C16F2DCE0101960E940F04CE0187
:100CC00001960E94C10BE82ECE0101960E94DE0320
:100CD000F2E5EF1204C0F80180A191A131C16F2D9E
:100CE000CE0101960E940F04CE0101960E94C10B15
:100CF000E82ECE0101960E94DE03F3E5EF1204C058
:100D0000F80184A195A11CC16F2DCE0101960E940E
:100D10000F04CE0101960E94C10BE82ECE01019670
:100D20000E94DE03FCE4EF1204C0F801868D978D6B
:100D300007C16F2DCE0101960E940F04CE010196CE
:100D40000E94C10BE82ECE0101960E94DE03FDE455
:100D5000EF1204C0F80182A193A1F2C06F2DCE0161
:100D600001960E940F04CE0101960E94C10BE82E4D
:100D7000CE0101960E94DE03F3E4EF1204C0F801F5
:100D800080A991A9DDC06F2DCE0101960E940F04AC
:100D9000CE0101960E94C10BE82ECE0101960E9461
:100DA000DE03F8E4EF1204C0F80186A597A5C8C0D9
:100DB0006F2DCE0101960E940F04CE0101960E9474
:100DC000C10BE82ECE0101960E94DE03F0E5EF1282
:100DD00004C0F80180A591A5B3C06F2DCE01019686
:100DE0000E940F04CE0101960E94C10BE82ECE0195
:100DF00001960E94DE03FFE4EF1204C0F80186A111
:100E000097A19EC06F2DCE0101960E940F04CE01C6
:100E100001960E94C10BE82ECE0101960E94DE03CE
:100E2000F1E6EF1609F447C06F2DCE0101960E943E
:100E30000F04CE0101960E94C10BE82ECE0101964F
:100E40000E94DE03F2E6EF1609F44AC06F2DCE01D0
:100E500001960E940F04CE0101960E94C10BE82E5C
:100E6000CE0101960E94DE03F3E6EF1609F44DC0B1
:100E70006F2DCE0101960E940F04CE0101960E94B3
:100E8000C10BE82ECE0101960E94DE03F4E6EF16B8
:100E900009F450C06F2DCE0101960E940F04CE01BF
:100EA00001960E94C10BE82ECE0101960E94DE033E
:100EB000F5E6EF1204C0F8018681978141C06F2DDD
:100EC000CE0101960E940F04CE0101960E94C10B33
:100ED000E82ECE0101960E94DE03F6E6EF1204C072
:100EE000F801848595852CC06F2DCE0101960E9456
:100EF0000F04CE0101960E94C10BE82ECE0101968F
:100F00000E94DE03F7E6EF1204C0F80180859185A8
:100F100017C06F2DCE0101960E940F04CE010196DD
:100F20000E94C10BF82ECE0101960E94DE03F8E666
:100F3000FF1204C0F8018285938502C08AE590E023
:100F400026960FB6F894DEBF0FBECDBFDF91CF91CE
:100F50001F910F91FF90EF900895982F973058F5BB
:100F60009093E900981739F07091EC002091ED0012
:100F70005091F00003C0242F762F50E021FF19C0BC
:100F80003091EB003E7F3093EB003091ED003D7FE0
:100F90003093ED003091EB0031603093EB007093B3
:100FA000EC002093ED005093F0002091EE0027FF1D
:100FB00007C09F5FD3CF8F708093E90081E00895D1
:100FC00080E008951F920F920FB60F9211242F9375
:100FD0003F934F935F936F937F938F939F93AF93C1
:100FE000BF93EF93FF938091E10082FF09C080914E
:100FF000E20082FF05C08091E1008B7F8093E100D9
:101000008091DA0080FF1BC08091D80080FF17C05C
:101010008091DA008E7F8093DA008091D90080FF82
:101020000BC080E189BD82E189BD09B400FEFDCF1E
:1010300081E08093800203C019BC109280028091ED
:10104000E10080FF17C08091E20080FF13C0809113
:10105000E2008E7F8093E2008091E20080618093C5
:10106000E2008091D80080628093D80019BC85E0AE
:10107000809380028091E10084FF2EC08091E20085
:1010800084FF2AC080E189BD82E189BD09B400FEE8
:10109000FDCF8091D8008F7D8093D8008091E100B2
:1010A0008F7E8093E1008091E2008F7E8093E2004A
:1010B0008091E20081608093E20080917F0288232A
:1010C00011F084E007C08091E30087FD02C081E059
:1010D00001C083E0809380028091E10083FF22C001
:1010E0008091E20083FF1EC08091E100877F8093A2
:1010F000E10082E08093800210927F028091E10003
:101100008E7F8093E1008091E2008E7F8093E200E9
:101110008091E20080618093E20042E360E080E041
:101120000E94AD07FF91EF91BF91AF919F918F9179
:101130007F916F915F914F913F912F910F900FBED3
:101140000F901F9018950F931F93CF93DF93CDB7F8
:10115000DEB7AA970FB6F894DEBF0FBECDBF809161
:101160008002882309F43CC21091E9001F7090911D
:10117000EC00892F817090FD80E8182B1092E90017
:101180008091E80083FF1EC2ECE6F2E088E08E0F5B
:101190009091F10091938E13FBCF8091E80083FF33
:1011A00003C280916C0290916D02492F50E04A3049
:1011B000510508F0F9C1FA01EA5AFF4F0C94CE1517
:1011C000803821F0823809F0EFC108C080917D029B
:1011D00090917E02992389F082600FC08091700205
:1011E0008F70873008F0E0C18093E9008091EB00B8
:1011F00085FB882780F91092E9009091E800977F9D
:101200009093E8008093F1001092F1009FC1282F85
:101210002D7F09F0C9C1882319F0823061F0C4C163
:1012200080916E02813009F0BFC1933009F080E0F7
:1012300080937E022EC080916E0281112AC080911F
:1012400070028F702FEF280F263008F0ADC1809309
:10125000E9002091EB0020FF1CC0933021F4809125
:10126000EB00806214C09091EB0090619093EB00D2
:1012700021E030E0A90102C0440F551F8A95E2F732
:101280004093EA001092EA008091EB00886080931E
:10129000EB001092E9008091E800877F5AC181112C
:1012A00083C100916E020F778091E3008078802BDC
:1012B0008093E3008091E800877F8093E8000E949C
:1012C00050028091E80080FFFCCF8091E3008068AD
:1012D0008093E300011102C082E001C083E08093AB
:1012E000800262C18058823008F05EC180916E0237
:1012F00090916F028C3D53E0950709F080C083E028
:101300008A838AE289834FB7F894DE01139620E03E
:101310003EE051E2E32FF0E050935700E49120FFCC
:1013200003C0E295EF703F5FEF708E2F90E0EA30E0
:1013300010F0C79601C0C0968D939D932F5F243106
:1013400049F74FBF8091E800877F8093E8002091A4
:101350007202309173022A32310510F02AE230E035
:1013600040E0BE016F5F7F4F21153105A1F18091F3
:101370008002882309F4D9C0853009F4D6C0809151
:10138000E80083FDD2C08091E80082FD33C08091E7
:10139000E80080FFE9CF4091F3008091F20090E0F7
:1013A000942BFB01BF012115310551F080349105CB
:1013B00038F441914093F100215031090196F2CF68
:1013C00041E08034910509F040E08091E8008E779B
:1013D0008093E800C9CF4111CACF0CC08091800230
:1013E000882309F4A2C0853009F49FC08091E800E9
:1013F00083FD9BC08091E80082FFF0CF96C0292F2B
:10140000332723303105D9F06CF42130310509F44C
:10141000DDC02230310509F0C7C089E290E0E6E185
:10142000F1E031C02132310509F4D5C02232310555
:1014300009F0BAC086E590E0E0ECF0E024C099271E
:101440008130910571F08230910599F0892B09F076
:10145000ABC0E5E9F1E0E4918E2F90E0E5E9F1E041
:101460000FC0E7E7F1E0E4918E2F90E0E7E7F1E0CD
:1014700007C0E1E5F1E0E4918E2F90E0E1E5F1E0D5
:10148000009709F491C02091E800277F2093E8009D
:1014900020917202309173022817390708F4C901AC
:1014A00040E0009789F120918002222309F43DC099
:1014B0002530D9F12091E80023FD37C02091E800C4
:1014C00022FD2FC02091E80020FFEBCF4091F300D8
:1014D0002091F20030E0342B009759F02034310590
:1014E00040F444914093F100319601972F5F3F4FB4
:1014F000F3CF41E02034310509F040E02091E800CD
:101500002E772093E800CDCF4111CDCF0AC0809136
:101510008002882351F0853041F08091E80083FDFE
:1015200004C08091E80082FFF2CF8091E8008B77C1
:101530008093E80039C08038B9F58091E800877F52
:101540008093E80080917F028093F1008091E80011
:101550008E778093E8000E94500226C0811124C03B
:1015600090916E02923000F58091E800877F809321
:10157000E80090937F020E94500280917F028111C7
:1015800006C08091E30087FD02C081E001C084E0D5
:101590008093800242E360EC82E00E94AD0742E368
:1015A00061EC81E00E94AD078091E80083FF0AC0F2
:1015B0008091E800877F8093E8008091EB00806253
:1015C0008093EB001F701093E9000AC082E190E065
:1015D000EFE3F1E058CF89E090E0E8E2F1E053CFAB
:1015E000AA960FB6F894DEBF0FBECDBFDF91CF91A4
:1015F0001F910F910895EF92FF920F931F93CF9336
:10160000DF93CDB7DEB727970FB6F894DEBF0FBED6
:10161000CDBF80918002843009F06CC082E080935D
:10162000E9008091E80082FF2CC08091E80085FFEE
:1016300023C00E941E0281111FC007E010E0CE01EE
:1016400001967C018091E80085FD0CC08091E80046
:101650008B778093E8000E94A3080E941E028823D3
:1016600041F00AC08091F100D7018D937D010150B6
:1016700011090115110531F78091E8008B778093EE
:10168000E80081E08093E9008091E80080FF32C0AB
:101690000E941E02882369F08091E8008E77809373
:1016A000E80088E0E2E8F2E0DF011D928A95E9F7C0
:1016B00021C008E010E082E8E82E82E0F82E809158
:1016C000E80085FD0CC08091E8008E778093E800EB
:1016D0000E94A3080E941E02882341F0DDCFF7017B
:1016E00081917F018093F1000150110901151105CD
:1016F00031F7D2CF27960FB6F894DEBF0FBECDBF1D
:10170000DF91CF911F910F91FF90EF9008950F936C
:101710001F930E94E304609392027093930280935C
:10172000940290939502E0918A02F0918B020680D8
:10173000F781E02D8AE892E0099597FF1FC00E948B
:10174000E30400919202109193022091940230914F
:101750009502DC01CB01801B910BA20BB30B009116
:101760008E0210918F022091900230919102801789
:101770009107A207B307B8F28FEF9FEF1F910F9168
:101780000895DC0114962D913C911597232B31F08F
:10179000ED91FC91309711F08081089580E00895DB
:1017A0008F929F92BF92CF92DF92EF92FF920F9310
:1017B0001F93CF93DF931F92CDB7DEB74C01B62EA8
:1017C0006801790149830E94E304F40166AB77ABB9
:1017D00080AF91AF02A913A924A935A9DC01CB01DF
:1017E000801B910BA20BB30B49818C159D05AE0597
:1017F000BF0530F4B092850240938602828110C00A
:10180000FFEFCF1ADF0AEF0AFF0A8C159D05AE0520
:10181000BF0580F4F4018281809385028093860263
:1018200080938702809388020E94FB0A0E94A3088B
:1018300081E011C00E94E304F40162AB73AB84AB9E
:1018400095AB828180938502809386028093870284
:101850008093880280E00F90DF91CF911F910F91CC
:10186000FF90EF90DF90CF90BF909F908F90089562
:101870008F929F92BF92CF92DF92EF92FF920F933F
:101880001F93CF93DF931F92CDB7DEB74C01B62ED7
:101890006801790149830E94E304F40166AB77ABE8
:1018A00080AF91AF02A913A924A935A9DC01CB010E
:1018B000801B910BA20BB30B49818C159D05AE05C6
:1018C000BF0530F4B092870240938802828110C035
:1018D000FFEFCF1ADF0AEF0AFF0A8C159D05AE0550
:1018E000BF0580F4F401828180938702809388028F
:1018F00080938502809386020E94FB0A0E94A308BF
:1019000081E011C00E94E304F40162AB73AB84ABCD
:1019100095AB8281809387028093880280938502B1
:101920008093860280E00F90DF91CF911F910F91FD
:10193000FF90EF90DF90CF90BF909F908F90089591
:10194000CF93DF93FC0144815581608171818AE8E6
:1019500092E00E942701EC0142E050E069E672E06B
:101960008AE892E00E9427018C0F9D1FDF91CF91A2
:1019700008950F931F93CF93DF9300D0CDB7DEB7B9
:101980008C016BE672E00E9430040E94870B97FD89
:101990000BC089831A8241E050E0BE016F5F7F4F28
:1019A000C8010E941D03F1CFC8010F900F90DF9175
:1019B000CF911F910F910895CF93DF93009779F006
:1019C000FC0101900020E9F73197AF01481B590B4A
:1019D000BC018AE892E00E942701EC0102C0C0E04D
:1019E000D0E042E050E069E672E08AE892E00E94CE
:1019F00027018C0F9D1FDF91CF91089581EA93E01D
:101A00000C94DE03CF93DF93CDB7DEB7CA57D1096D
:101A10000FB6F894DEBF0FBECDBF789484B5826058
:101A200084BD84B5816084BD85B5826085BD85B582
:101A3000816085BD80916E00816080936E00109200
:101A4000810080918100826080938100809181007B
:101A5000816080938100809180008160809380000C
:101A600080919100826080939100809191008160CB
:101A7000809391008091900081608093900080918C
:101A8000C10084608093C1008091C1008260809316
:101A9000C1008091C10081608093C1008091C3002A
:101AA00081608093C3008091C00082608093C000F9
:101AB0008091C20081608093C20080917A0084602E
:101AC00080937A0080917A00826080937A0080917E
:101AD0007A00816080937A0080917A008068809398
:101AE0007A0084B7877F84BF0FB6F894A895809159
:101AF0006000886180936000109260000FBE20E05B
:101B000030E080E80FB6F894809361002093610084
:101B10000FBE8091D8008F7E8093D8008091D7002F
:101B200081608093D70084E082BF81E0809381024E
:101B30008091D8008E7F8093D8001092E20010929E
:101B4000DA001092E1008091D8008F778093D8005E
:101B50008091D80080688093D8008091D8008F7DD4
:101B60008093D80019BC1092800210927F021092CC
:101B70007E0210927D028091E0008B7F8093E000D6
:101B80008091D80081608093D80042E360E080E0DB
:101B90000E94AD078091E1008E7F8093E1008091EB
:101BA000E20081608093E2008091E200886080938F
:101BB000E2008091E0008E7F8093E0008091D80069
:101BC00080618093D8007894E0919A02F0919B0212
:101BD00082E08083E0919602F09197021082E0917A
:101BE0009802F09199028FEC80831092A202E0910A
:101BF0009E02F0919F0286E08083E0919C02F0912A
:101C00009D02808180618083E0919C02F0919D0221
:101C1000808188608083E0919C02F0919D028081A8
:101C200080688083E0919C02F0919D0280818F7D8D
:101C300080838AE191E00E94DC0CE6EDF1E02491E2
:101C4000E7EBF1E08491882399F090E0880F991FE9
:101C5000FC01E955FE4FA591B491FC01E756FE4FFA
:101C6000859194918FB7F894EC91E22BEC938FBF10
:101C7000CE0101960E9439056EE171E0CE018F58C8
:101C80009F4F0E9430046BE672E0CE0185599F4F52
:101C90000E9430046EE171E0CE018F589F4F0E9488
:101CA000FE028823E9F00E94E3046FAB78AF89AFAE
:101CB0009AAF8AE892E00E947401892B59F3CE0111
:101CC000CB960E94B90CBE01655C7F4FCE018F5848
:101CD0009F4F0E94A503CE01CB960E94DE03E9CF61
:101CE00066E271E0CE018F589F4F0E94FE0288236A
:101CF00009F4C6C188248A94982C66E371E0CE0169
:101D00008F589F4F0E94FE028111AFC10E94E304D1
:101D10006FAB78AF89AF9AAF0BA91CA92DA93EA9CB
:101D2000DC01CB01801B910BA20BB30B8D3B9240CE
:101D3000A105B10508F491C166E271E0CE018F58AA
:101D40009F4F0E94FE02882309F490C586C10E941D
:101D5000E3046FAB78AF89AF9AAFCE01CB960E9408
:101D6000B90CBE01655C7F4FCE018F589F4F0E941A
:101D7000A503CE01CB960E94DE0366E371E0CE019F
:101D80008F589F4F0E94FE028111D5C566E271E017
:101D9000CE018F589F4F0E94FE028111CCC523E0D7
:101DA00030E040E050E0BE016F587F4FCE01CB964F
:101DB0000E9445048BAD9CAD009709F4B9C50E9403
:101DC0000515062FC02ED72E4601CE01CB960E94B8
:101DD000DE03BE016F587F4FCE018D5A9F4F0E9488
:101DE000270468E171E0CE01CB960E943004BE0169
:101DF000655C7F4FCE018D5A9F4F0E94CB025C01E4
:101E00006FE371E0CE01895B9F4F0E943004BE01F9
:101E1000695B7F4FCE018D5A9F4F0E94CB02AC0170
:101E20004F5F5F4F9501BE016D5A7F4FCE01835BBF
:101E30009F4F0E944504CE01895B9F4F0E94DE03A5
:101E4000CE01CB960E94DE0361E471E0CE01835B9C
:101E50009F4F0E94FE02811141C569E471E0CE01ED
:101E6000835B9F4F0E94FE0281113AC561E571E0DC
:101E7000CE01835B9F4F0E94FE02811133C569E54D
:101E800071E0CE01835B9F4F0E94FE0281112CC541
:101E900062E671E0CE01835B9F4F0E94FE028111DA
:101EA00025C561E671E0CE01835B9F4F0E94FE0273
:101EB00081111EC56BE671E0CE01835B9F4F0E94CE
:101EC000FE02811117C56AE671E0CE01835B9F4F68
:101ED0000E94FE02811110C563E771E0CE01835BB1
:101EE0009F4F0E94FE02811109C561E871E0CE0199
:101EF000835B9F4F0E94FE02811102C56CE871E076
:101F0000CE01835B9F4F0E94FE028111FBC467E9F3
:101F100071E0CE01835B9F4F0E94FE028111F4C4E9
:101F200063EA71E0CE01835B9F4F0E94FE02811144
:101F3000EDC46BEA71E0CE01835B9F4F0E94FE020D
:101F40008111E6C461EB71E0CE01835B9F4F0E947B
:101F5000FE028111DFC469EB71E0CE01835B9F4F0C
:101F60000E94FE028111D8C462EC71E0CE01835B55
:101F70009F4F0E94FE028111D1C46AEC71E0CE0134
:101F8000835B9F4F0E94FE028111CAC460ED71E025
:101F9000CE01835B9F4F0E94FE028111C3C468ED96
:101FA00071E0CE01835B9F4F0E94FE028111BCC491
:101FB00061EE71E0CE01835B9F4F0E94FE028111B2
:101FC000B5C41AE5CE01835B9F4F0E94DE03560124
:101FD000AA0CBB1CAC0CBD1C612FC5010E949B054B
:101FE000CE018D5A9F4F0E94DE03BE016F587F4F76
:101FF000CE01CB960E942704BE01655C7F4FCE01C7
:1020000001960E949F05692FC50101960E949B05BC
:10201000CE01CB960E94DE03BE016F587F4FCE01EA
:10202000CB960E942704BE01655C7F4FCE010196CE
:102030000E949F05682FC50102960E949B05CE0154
:10204000CB960E94DE036D2D81E090E00E949B05FF
:10205000602F82E090E00E949B058AE892E00E9457
:102060007401892B09F073CE48CE692D81E090E090
:102070000E949B05682D82E090E00E949B05E2C3D0
:1020800067EF71E0CE018F589F4F0E94FE028823B8
:1020900009F494C067EF71E0CE018F589F4F0E9402
:1020A000FE028823B1F10E94E3046FAB78AF89AFE1
:1020B0009AAF0BA91CA92DA93EA9DC01CB01801B5D
:1020C000910BA20BB30B8D3B9240A105B10550F0D3
:1020D00089EE91E00E94DC0C0E94E3046BAB7CABC8
:1020E0008DAB9EAB8AE892E00E947401892B91F23D
:1020F000CE01CB960E94B90CBE01655C7F4FCE012C
:102100008F589F4F0E94A503CE01CB960E94DE03FD
:10211000E9CF00E010E060E0C8010E949B050F5F7E
:102120001F4F011544E01407B1F76EE171E0CE01D5
:102130008F589F4F0E9477030E94E3046FAB78AFE4
:1021400089AF9AAF6EE171E0CE018F589F4F0E9428
:10215000FE02882309F476C38FA998ADA9ADBAAD64
:102160004BA95CA96DA97EA9841B950BA60BB70B87
:102170008D3B9240A105B10550F08DEF91E00E949A
:10218000DC0C0E94E3046BAB7CAB8DAB9EAB8AE8AE
:1021900092E00E947401892BA9F2CE01CB960E9495
:1021A000B90CBE01655C7F4FCE018F589F4F0E94D6
:1021B000A503CE01CB960E94DE03E9CF6BE072E06F
:1021C000CE018F589F4F0E94FE02882309F444C21B
:1021D00082E090E00E949D05882E81E090E00E94C0
:1021E0009D05912C982A63E172E0CE018B599F4F97
:1021F0000E94300461E272E0CE01815A9F4F0E943A
:10220000300466E272E0CE01875A9F4F0E9430048C
:1022100083E0A82EB12CCC24C394D12C8C149D0423
:102220000CF40AC2C5010E949D05F82EC501029654
:102230000E949D05482EC50101960E949D05512CC6
:10224000582A052C000C660877086F2DCE01CB9616
:102250000E940F04CE01CB960E94C10B682FCE01C5
:102260008B599F4F0E94E5028C01CE01CB960E94B4
:10227000DE036F2D0F3F1F4F09F4E2C0CE01CB9656
:102280000E940F04CE01CB960E94C10B182FCE01E5
:10229000CB960E94DE031E3481F50E94E3046FABEF
:1022A00078AF89AF9AAF0BA91CA92DA93EA9DC0173
:1022B000CB01801B910BA20BB30B84159505A605D2
:1022C000B705A0F40E94E3046FAB78AF89AF9AAF73
:1022D0008B8180938502809386028093870280930E
:1022E00088020E94FB0A0E94A308D7CF0E94E30441
:1022F0006BAB7CAB8DAB9EAB5AC0A30192012F5F41
:102300003F4F4F4F5F4FEB962CAF3DAF4EAF5FAFA0
:10231000EB976F2DCE0101960E94FA058C010E9469
:10232000E3046FAB78AF89AF9AAF2BA93CA94DA955
:102330005EA9DC01CB01821B930BA40BB50B8415AA
:102340009505A605B70558F4809182029091830205
:10235000082B192B10938302009382020BC0EB967B
:102360002CAD3DAD4EAD5FADEB9782179307A40743
:10237000B50770F48B8180938502809386028093E9
:102380008702809388020E94FB0A0E94A308C1CFA3
:102390000E94E3046BAB7CAB8DAB9EAB8B818093D7
:1023A00085028093860280938702809388026F2D36
:1023B000CE0101960E94FA054AE0BC01CE01CB96FF
:1023C0000E94E3036F2DCE01895B9F4F0E940F0493
:1023D0004AE0B601CE018D5A9F4F0E94E303BE0131
:1023E0006D5A7F4FCE01835B9F4F0E9427046FE39E
:1023F00071E0CE01835B9F4F0E944B03BE01695B7E
:102400007F4F0E9464036FE371E00E944B03BE01A3
:10241000655C7F4F0E9464036BE272E00E944B0395
:102420000E94A00CCE01835B9F4F0E94DE03CE0171
:102430008D5A9F4F0E94DE03CE01895B9F4FEFC0F4
:10244000CE01CB960E940F04CE01CB960E94C10B09
:10245000682FCE01815A9F4F0E94E5028C01CE0168
:10246000CB960E94DE036F2DCE01CB960F3F1F4F00
:1024700009F447C00E940F04CE01CB960E94C10B05
:102480008136A9F06F2DCE01895B9F4F0E940F040A
:10249000CE01895B9F4F0E94C10B11E0843609F089
:1024A00010E0CE01895B9F4F0E94DE0301C011E066
:1024B000CE01CB960E94DE03112389F06F2DCE0151
:1024C00001960E94FA056B817C8193018201AC0127
:1024D000CE0101960E94380C8111F0CFA6C02B804E
:1024E0003C806F2DCE0101960E94FA059301820176
:1024F000A101BC01CE0101960E94380C8111EFCFE1
:1025000094C00E940F04CE01CB960E94C10B682F8D
:10251000CE01875A9F4F0E94E5028C01CE01CB96D7
:102520000E94DE036F2DCE01CB960F3F1F4F09F4A3
:1025300047C00E940F04CE01CB960E94C10B853686
:10254000A9F06F2DCE01895B9F4F0E940F04CE0131
:10255000895B9F4F0E94C10B11E0883609F010E0A3
:10256000CE01895B9F4F0E94DE0301C011E0CE01C6
:10257000CB960E94DE03112389F06F2DCE010196C8
:102580000E94FA056B817C8193018201AC01CE012E
:1025900001960E94D00B8111F0CF47C02B803C8068
:1025A0006F2DCE0101960E94FA0593018201A101CF
:1025B000BC01CE0101960E94D00B8111EFCF35C036
:1025C0000E940F044AE0B601CE01835B9F4F0E9438
:1025D000E303BE01635B7F4FCE01895B9F4F0E9487
:1025E00027046FE371E0CE01895B9F4F0E944B038C
:1025F000BE01655C7F4F0E9464036FE371E00E943F
:102600004B0367E372E00E944B030E94A00CCE01D3
:10261000895B9F4F0E94DE03CE01835B9F4F0E9428
:10262000DE03CE01CB960E94DE035FEFC51AD50A0A
:1026300083E0A80EB11CF2CDCE01875A9F4F0E94B5
:10264000DE03CE01815A9F4F0E94DE03CE018B59DB
:102650009F4F0E94DE03BCCD64E472E0CE018F5830
:102660009F4F0E94FE02882309F4F3C064E472E0E5
:10267000CE018F589F4F0E94FE028823B1F10E9425
:10268000E3046FAB78AF89AF9AAF0BA91CA92DA952
:102690003EA9DC01CB01801B910BA20BB30B8D3B40
:1026A0009240A105B10550F08BE492E00E94DC0C51
:1026B0000E94E3046BAB7CAB8DAB9EAB8AE892E0EF
:1026C0000E947401892B91F2CE01CB960E94B90C25
:1026D000BE01655C7F4FCE018F589F4F0E94A503BE
:1026E000CE01CB960E94DE03E9CF82E090E00E940B
:1026F0009D05082F81E090E00E949D0510E0182BB9
:10270000B801CE01CB960E94D9176FE272E0CE01DC
:10271000CB960E94D9176EE171E0CE018F589F4F82
:102720000E9477036CE572E0CE018F589F4F0E94A4
:10273000FE02811187C00E94E3046FAB78AF89AFBE
:102740009AAF8BA89CA8ADA8BEA8DC01CB018819C4
:102750009909AA09BB098D3B9240A105B10508F46E
:1027600057C04AE0B801CE010A3011053CF4895B3C
:102770009F4F0E94E30369E572E009C0043611052A
:1027800014F5895B9F4F0E94E3036AE572E0CE0176
:10279000835B9F4F0E943004BE01695B7F4FCE0177
:1027A000835B9F4F0E9464036DE272E00E944B03C3
:1027B0000E94A00CCE01835B9F4F0E94DE03CE01DE
:1027C000895B9F4F1DC0835B9F4F0E94E303BE0147
:1027D000635B7F4FCE01895B9F4F0E9427046DE2B0
:1027E00072E0CE01895B9F4F0E944B030E94A00CB8
:1027F000CE01895B9F4F0E94DE03CE01835B9F4F1A
:102800000E94DE030E94E3046BAB7CAB8DAB9EABFE
:102810008AE892E00E947401892B09F483CFCE01EB
:10282000895B9F4F0E94B90CBE01695B7F4FCE014F
:102830008F589F4F0E94A503CE01895B9F4F0E9436
:10284000DE03E6CF6EE171E0CE018F589F4F0E940C
:102850007703CE0185599F4F0E94DE03CE018F582A
:102860009F4F0E94DE030E94140202CA4FEF84169B
:10287000940669F123E030E040E050E0BE016F587B
:102880007F4FCE01895B9F4F0E944504BE01695B6B
:102890007F4FCE01CB960E9427046CE271E0CE01FF
:1028A000CB960E944B03BC01CE0185599F4F0E94DD
:1028B0008E03CE01CB960E94DE03CE01895B9F4F33
:1028C0000E94DE03CE0185599F4F0E94A00C0E94FA
:1028D000E3046BAB7CAB8DAB9EAB0FCA11E472CB48
:1028E00012E470CB18E56ECB19E56CCB12E56ACB20
:1028F00013E568CB1CE466CB1DE464CB13E462CB28
:1029000018E460CB10E55ECB1FE45CCB1EE45ACB31
:1029100011E658CB12E656CB13E654CB14E652CB55
:1029200015E650CB16E64ECB17E64CCB18E64ACB55
:1029300000E070E047CA8FA998ADA9ADBAAD4BA928
:102940005CA96DA97EA9841B950BA60BB70B8D3BCB
:102950009240A105B10508F480CB89EE91E00E9478
:10296000DC0C7BCBEAE8F2E01382128288EE93E083
:10297000A0E0B0E084839583A683B7838AE091E0EA
:10298000918380838DEC90E0958784878CEC90E038
:102990009787868788EC90E0918B808B89EC90E01C
:1029A000938B828B8AEC90E0958B848B8EEC90E0FD
:1029B000978B868B118E128E138E148E87EA93E07E
:1029C0000E9439056BE672E081EA93E00E943004D0
:1029D00087E693E00E94390587E293E00E9439057B
:1029E000E7E2F3E013AE12AE15AE14AE109266033A
:1029F000109265030E94E3046093E1037093E20385
:102A00008093E3039093E40308951F93FC019927B7
:102A10008827BC01E89411911032E9F3193010F0C5
:102A20001E30C8F31B3251F01D3249F4689406C0C1
:102A30000E944215610F711D811D911D119110534E
:102A40001A30B0F33EF490958095709561957F4F64
:102A50008F4F9F4F1F9108954532510520F442300A
:102A600010F00C943715FB011082CB010895BB27A1
:102A70004A3031F4992322F4BDE2909581959F4F1D
:102A80000C945815592F482F372F262F660F771F74
:102A9000881F991F660F771F881F991F620F731F6A
:102AA000841F951F660F771F881F991F0895BB27E6
:102AB000FB015527AA27880F991FAA1FA41710F0FA
:102AC000A41B83955051B9F7A05DAA3308F0A95D06
:102AD000A193009779F7B111B1931192CB010C94A6
:102AE0007115DC01FC01672F71917723E1F73297B3
:102AF00004C07C916D9370836291AE17BF07C8F3D9
:102B00000895F999FECF92BD81BDF89A992780B5B5
:102B10000895262FF999FECF1FBA92BD81BD20BD21
:102B20000FB6F894FA9AF99A0FBE019608952F926B
:102B30003F924F925F926F927F928F929F92AF924D
:102B4000BF92CF92DF92EF92FF920F931F93CF939A
:102B5000DF93CDB7DEB7CA1BDB0B0FB6F894DEBF31
:102B60000FBECDBF09942A88398848885F846E8457
:102B70007D848C849B84AA84B984C884DF80EE80A1
:102B8000FD800C811B81AA81B981CE0FD11D0FB6AA
:102B9000F894DEBF0FBECDBFED010895EE0FFF1F0D
:102BA0000590F491E02D0994CF93DF938230910545
:102BB00010F482E090E0E091E703F091E80320E078
:102BC00030E0C0E0D0E0309711F1408151814817EA
:102BD0005907C0F04817590761F482819381209703
:102BE00019F09B838A832BC09093E8038093E703BB
:102BF00026C02115310519F04217530718F49A0120
:102C0000BE01DF01EF010280F381E02DDCCF211551
:102C1000310509F1281B390B2430310590F4129647
:102C20008D919C9113976115710521F0FB019383A0
:102C3000828304C09093E8038093E703FD013296FA
:102C400044C0FD01E20FF31F81939193225031099B
:102C50002D933C933AC02091E5033091E603232B5A
:102C600041F420910201309103013093E603209357
:102C7000E50320910001309101012115310541F456
:102C80002DB73EB74091040150910501241B350B2F
:102C9000E091E503F091E603E217F307A0F42E1BA1
:102CA0003F0B2817390778F0AC014E5F5F4F2417B0
:102CB000350748F04E0F5F1F5093E6034093E5033E
:102CC0008193919302C0E0E0F0E0CF01DF91CF91DA
:102CD00008950F931F93CF93DF93009709F48CC04F
:102CE000FC013297138212820091E7031091E803EE
:102CF0000115110581F420813181820F931F2091EC
:102D0000E5033091E6032817390779F5F093E603D8
:102D1000E093E50371C0D80140E050E0AE17BF0773
:102D200050F412962D913C911397AD012115310568
:102D300009F1D901F3CF9D01DA0133832283608148
:102D40007181860F971F8217930769F4EC01288120
:102D50003981260F371F2E5F3F4F318320838A81B1
:102D60009B8193838283452B29F4F093E803E093BE
:102D7000E70342C01396FC93EE931297ED0149913D
:102D800059919E01240F351FE217F30771F48081DA
:102D90009181840F951F029611969C938E93828148
:102DA000938113969C938E931297E0E0F0E0D80104
:102DB00012968D919C911397009719F0F8018C0150
:102DC000F6CF8D919C9198012E5F3F4F820F931FFC
:102DD0002091E5033091E6032817390769F430970D
:102DE00029F41092E8031092E70302C013821282C2
:102DF0001093E6030093E503DF91CF911F910F91AC
:102E00000895A0E0B0E0E7E0F7E10C949B15EC0139
:102E1000009721F4CB010E94D415B8C0FC01E60F45
:102E2000F71F9C0122503109E217F30708F4ACC0E8
:102E3000D9010D911C91119706171707B0F00530B5
:102E4000110508F49FC0C80104978617970708F476
:102E500099C002501109061B170B019311936D9332
:102E60007C93CF010E9469168DC05B01A01AB10A44
:102E70004C01800E911EA091E703B091E80340E061
:102E800050E0E12CF12C109709F44AC0A815B905BF
:102E9000D1F56D907C901197630182E0C80ED11C32
:102EA000CA14DB0480F1A3014A195B096A0182E0BC
:102EB000C80ED11C1296BC9012971396AC91B5E037
:102EC000CB16D10440F0B282A38351834083D90151
:102ED0006D937C930AC00E5F1F4FC301800F911F3B
:102EE000F90191838083EB2DFA2FE114F10431F085
:102EF000D7011396FC93EE93129744C0F093E80326
:102F0000E093E7033FC08D919C91119748175907B3
:102F100008F4AC017D0112960D90BC91A02DB3CFA9
:102F20008091E5039091E60388159905E1F4461731
:102F30005707C8F48091000190910101009741F476
:102F40008DB79EB74091040150910501841B950BEC
:102F5000E817F907C8F4F093E603E093E503F901F5
:102F6000718360830FC0CB010E94D4157C01009750
:102F700059F0A801BE010E94D017CE010E94691627
:102F8000C70104C0CE0102C080E090E0CDB7DEB73B
:102F9000EEE00C94B71581E090E0F8940C941918C9
:102FA000FB01DC0102C001900D9241505040D8F766
:102FB0000895FB01DC010D900020E9F711970190C5
:102FC0000D920020E1F70895FC018191861721F010
:102FD0008823D9F7992708953197CF010895FB01E8
:102FE000DC018D91019080190110D9F3990B08959E
:102FF000FB01DC0101900D920020E1F70895FB0137
:1030000051915523A9F0BF01DC014D9145174111A4
:10301000E1F759F4CD010190002049F04D914015A0
:103020004111C9F3FB014111EFCF81E090E001971D
:10303000089510E0CBEFD0E004C0FE010E94CE1551
:0C3040002196CC3FD107C9F7F894FFCFD0
:10304C000000E903800000000000AB0127017401BF
:10305C0052016601F201290028006C6F6C00776147
:10306C006974696E6700464C4153480020436F6D8C
:10307C00706C65746500434F4D504C4554450020B1
:10308C000061427574746F6E0062427574746F6E79
:10309C000078427574746F6E0079427574746F6E3B
:1030AC00007A72427574746F6E007A6C4275747427
:1030BC006F6E0063617074757265427574746F6EB7
:1030CC0000686F6D65427574746F6E00706C75730B
:1030DC00427574746F6E006D696E7573427574749D
:1030EC006F6E006E6F7468696E6700726A735570EC
:1030FC0000726A734C65667400726A735269676811
:10310C007400726A73446F776E006C6A735570004A
:10311C006C6A734C656674006C6A73526967687488
:10312C00006C6A73446F776E005245414459464FA8
:10313C0052455843484100434C45415200434F4D82
:10314C00504C455445455843484100455845435516
:10315C005445004142585952534C4D4348504F4EE0
:10316C0000616263640065666768002058585858AF
:10317C005858585858580059595959595959595912
:10318C0059595900535441545553005354415455B3
:10319C005345584348414E4700303000434F4D5043
:0C31AC004C4554454D534721000D0A00CE
:2070000055C000006EC000006CC000006AC0000068C0000066C0000064C0000062C0000043
:2070200060C000005EC00000F2C400005AC0000058C0000056C0000054C0000052C00000EE
:2070400050C0000078C000004CC000004AC0000048C0000046C0000044C0000042C00000BE
:2070600040C000003EC000003CC000003AC0000038C0000036C0000034C0000032C0000048
:2070800030C000002EC000002CC000002AC0000028C0000026C0000024C0000022C00000A8
:2070A00020C000001EC000001CC0000011241FBECFEFDAE0DEBFCDBF11E0A0E0B1E0E2E3BC
:2070C000FFE702C005900D92A83AB107D9F711E0A8EAB1E001C01D92AE3BB107E1F78FD30B
:2070E00026C78ECFF89410926F0010928100109285001092840081E085BF15BE47985D9AEB
:20710000289A0C94000008952091B2013091B3012F5F3F4F3093B3012093B201932F37FFA6
:2071200003C08EEF831B982F990F921710F447980895479A08951F920F920FB60F9211246E
:207140002F938F939F93EF93FF9310928500109284008091A8019091A901009741F00197D3
:207160009093A9018093A801892B09F45D9A8091AA019091AB01009741F001979093AB0126
:207180008093AA01892B09F4289AE0E0F0E0859194918F5F9F4F49F08091AC019091AD0151
:2071A00001969093AD018093AC01FF91EF919F918F912F910F900FBE0F901F90189584E0BC
:2071C0008093E9000DC08091E8008B778093E80003C08EB3882351F08091E80082FFF9CFBE
:2071E0008091E80085FFEFCF8091F1000895982F83E08093E9008091E80085FD0DC0809136
:20720000E8008E778093E80003C08EB3882369F08091E80080FFF9CF9093F1005D9884E6CB
:2072200090E09093A9018093A80108954F925F926F927F928F929F92AF92BF92CF92DF921E
:20724000EF92FF920F931F93CF93DF9384E08093E9008091E80082FF57C2289884E690E067
:207260009093AB018093AA01AADF182F853481F48CE49DE19093AD018093AC0107B600FC4B
:20728000FDCFF999FECF81E180935700E89503C0843519F494DF8DE00DC28C34E1F38035F9
:2072A000D1F3843721F484E4A2DF80E003C2813611F489E5FFC18134B1F481DF182F7FDFE3
:2072C00090E0880F991FAA2797FDA095BA2F312F330F20E0442737FD4095542F822B932B68
:2072E000A42BB52BB8C1803711F483E5E3C1833549F4C0E0D1E089917ADF21E0C730D20714
:20730000D1F7D9C1863521F481E371DF80E3D2C1833731F487E86BDF85E969DF8EE1CAC149
:207320008536B9F4E0E0F0E093E085E090935700E89507B600FCFDCF80935700E89507B65D
:2073400000FCFDCFE058FF4FA0E7E030FA0771F7A2CF823739F4E1E0F0E089E08093570024
:207360008491A8C1863439F4E0E0F0E089E08093570084919FC18E3439F4E3E0F0E089E0E5
:2073800080935700849196C1813539F4E2E0F0E089E08093570084918DC1823631F489E521
:2073A00026DF80E024DF80E885C1823419F0873609F0E5C01092AD011092AC0100DF082FE8
:2073C000FEDEF82EFCDE682E8554823008F071C1902F80E0CF2DD0E0C82BD92B10926F00B3
:2073E000173609F04BC081E180935700E895DD24CC24C3943FC0E090AE01F090AF010091CC
:20740000B0011091B101B6E46B16D9F4ED2DF0E0EE29FF29E4918E2FEADEDD2081F082E08D
:2074200090E0A0E0B0E0E80EF91E0A1F1B1FE092AE01F092AF010093B0011093B101DC2470
:2074400018C0D801C701B695A7959795879559D5CEDE82E090E0A0E0B0E0E80EF91E0A1FF2
:207460001B1FE092AE01F092AF010093B0011093B1012197209709F0BECF7DC08090AE01F5
:207480009090AF01A090B001B090B10196E4691609F05DC083E0F40180935700E89507B63E
:2074A00000FCFDCF54C0F6E46F1661F5772031F1E090AE01F090AF010091B0011091B1019E
:2074C0007EDED82ECC24852D90E08C299D29F7010C0140925700E895112482E090E0A0E08B
:2074E000B0E0E80EF91E0A1F1B1FE092AE01F092AF010093B0011093B10102C060DE582E1A
:20750000742423C0E090AE01F090AF010091B0011091B10116950795F794E79450DE682FFA
:20752000C701F7D48091AE019091AF01A091B001B091B1010296A11DB11D8093AE01909349
:20754000AF01A093B001B093B101219704C05524772444244394209709F0A5CF96E46916B6
:2075600041F485E0F40180935700E89507B600FCFDCF8DE03CDE82E080936F009CC0833492
:2075800071F40091AE011091AF0119DE90E021E0F8010C0120935700E89511247CCE8336C8
:2075A00019F5E090AE01F090AF010091B0011091B10105DEF701E16090E021E00C0120938C
:2075C0005700E895112482E090E0A0E0B0E0E80EF91E0A1F1B1FE092AE01F092AF0100936A
:2075E000B0011093B10157CE8D3661F4E091AE01F091AF0185E080935700E89507B600FCF2
:20760000FDCF49CE823551F4E091AE01F091AF0105911491812FEBDD802F4CC0843421F5FE
:20762000E090AE01F090AF010091B0011091B10116950795F794E794C2DD682FC70169D4DE
:207640008091AE019091AF01A091B001B091B1010296A11DB11D8093AE019093AF01A093D8
:20766000B001B093B10117CE843609F5E090AE01F090AF010091B0011091B101D801C70142
:20768000B695A795979587953CD4B1DD82E090E0A0E0B0E0E80EF91E0A1F1B1FE092AE010A
:2076A000F092AF010093B0011093B10104C08B3111F08FE39CDD83E08093E9009091E8002B
:2076C0008091E8008E778093E80095FF04C010C08EB38823C9F08091E80080FFF9CF809193
:2076E000E8008E778093E80003C08EB3882361F08091E80080FFF9CF84E08093E9008091F1
:20770000E8008B778093E800DF91CF911F910F91FF90EF90DF90CF90BF90AF909F908F90AC
:207720007F906F905F904F9008959091B601892F8F77813249F58091B7018032A1F081328A
:2077400019F5913A09F58091E800877F8093E8008DE091E067E070E00BD28091E8008B770B
:207760008093E8000895913279F48091E800877F8093E8008DE091E067E070E05DD2809192
:20778000E8008E778093E800089582E061EC42E0B5D083E061E842E1B1D084E060E842E1EF
:2077A000ADC084B7877F84BF88E10FB6F89480936000109260000FBE20E880E090E00FB63F
:2077C000F89420936100809361000FBE81E085BF92E095BF3F9A209A559AE1E6F0E02083A1
:2077E000108247985D9A289A109289008AEF8093880090936F0083E080938100F0C0409116
:20780000000850910108109201081092000894B714BE88E10FB6F8948093600010926000D5
:207820000FBE292F30E0F901E270F07091FD18C090FF05C0859194918F5F9F4F81F423FFFF
:207840000FC08091090190910A014817590741F0E0E0F0E0859194918F5F9F4F09F042DC64
:20786000A0DF78941092AD011092AC010CC0DEDC36D38091AC019091AD0181549F4110F00D
:207880001092140141DC80911401882381F78091E00081608093E00025DC80E090E0089598
:2078A000FA01923049F0933061F09130F9F485E191E022E130E01EC087E291E02EE330E04D
:2078C00019C0882329F485E691E024E030E012C0813029F489E691E022E230E00BC0823006
:2078E00029F48DE891E028E130E004C080E090E020E030E091838083C90108958093E9004E
:207900008091EB0081608093EB001092ED006093EC004093ED008091EE00881F8827881F62
:2079200008958091B60188238CF403C08EB38823B1F08091E80082FFF9CF8091E8008B772A
:207940008093E80008958EB3882349F08091E80080FFF9CF8091E8008E778093E800089594
:20796000EF92FF920F931F9345D04CD008ED10E0F80180818F77808380818068808380819B
:207980008F7D808319BC1EBA1092B40180EEE82EF12CF70180818B7F8083F8018081816052
:2079A000808380E060E042E0A9DFE1EEF0E080818E7F8083E2EEF0E0808181608083808144
:2079C00088608083F70180818E7F8083F8018081806180831F910F91FF90EF900895E7ED06
:2079E000F0E08081816080838AE482BF81E08093B501B6CFE8EDF0E080818E7F808310921C
:207A0000E20008951092DA001092E10008951F920F920FB60F9211242F933F934F935F93F6
:207A20006F937F938F939F93AF93BF93EF93FF938091DA0080FF1BC08091D80080FF17C0B2
:207A40008091DA008E7F8093DA008091D90080FF0BC080E189BD82E189BD09B400FEFDCF36
:207A600081E08EBB3BD203C019BC1EBA37D28091E10080FF17C08091E20080FF13C0809138
:207A8000E2008E7F8093E2008091E20080618093E2008091D80080628093D80019BC85E049
:207AA0008EBB1CD28091E10084FF2CC08091E20084FF28C080E189BD82E189BD09B400FEC5
:207AC000FDCF8091D8008F7D8093D8008091E1008F7E8093E1008091E2008F7E8093E20012
:207AE0008091E20081608093E2008091B401882331F48091E30087FD02C081E001C084E067
:207B00008EBBECD18091E10083FF21C08091E20083FF1DC08091E100877F8093E10082E06A
:207B20008EBB1092B4018091E1008E7F8093E1008091E2008E7F8093E2008091E2008061E9
:207B40008093E20080E060E042E0D8DEC7D1FF91EF91BF91AF919F918F917F916F915F9130
:207B60004F913F912F910F900FBE0F901F9018959C014091BC015091BD014617570718F49D
:207B8000F90190E044C06115710511F0AB01F8CF8091E8008E778093E80040E050E0F0CF0F
:207BA0008EB3882309F444C0853009F443C08091E80083FF02C081E008958091E80082FD70
:207BC00031C08091E80080FF22C08091F3009091F200782F60E0292F30E0262B372B07C07A
:207BE00081918093F100415050402F5F3F4F4115510519F02830310598F390E02830310566
:207C000009F491E08091E8008E778093E8004115510531F6992321F605C08EB3882341F075
:207C2000853041F08091E80082FFF7CF80E0089582E0089583E008959C016115710529F47C
:207C40008091E8008B778093E800F90126C08EB3882391F1853091F18091E80083FF02C06C
:207C600081E008958091E80082FFF1CF06C08091F10081936150704059F02091F300809191
:207C8000F200322F20E090E0822B932B892B79F78091E8008B778093E80061157105B9F601
:207CA00005C08EB3882341F0853041F08091E80080FFF7CF80E0089582E0089583E00895C2
:207CC0000F931F93DF93CF9300D0CDB7DEB7E6EBF1E08091F100819381E0EE3BF807C9F792
:207CE00024DD8091E80083FFE4C08091B6019091B701953009F46DC0963040F4913081F1A7
:207D0000913070F0933009F0D4C02AC0983009F4A3C0993009F4B2C0963009F0CAC07CC023
:207D2000803809F4C6C0823809F0C3C08091BA0187708093E9008091EB001092E9002091DB
:207D4000E800277F2093E80090E025E0969587952A95E1F781708093F1001092F10087C0D8
:207D6000882319F0823009F0A4C08F71823009F0A0C08091B801882331F52091BA01277097
:207D800009F497C02093E9008091EB0080FF1BC0933021F48091EB00806213C08091EB0018
:207DA00080618093EB0081E090E002C0880F991F2A95E2F78093EA001092EA008091EB00E5
:207DC00088608093EB001092E9008091E800877F51C0882309F06DC01091B8011F770FB79B
:207DE000F8948091E800877F8093E8009ADD8091E80080FFFCCF8091E3008078812B809398
:207E0000E30080688093E300112311F482E001C083E08EBB0FBF4DC08058823008F049C033
:207E20008091B8019091B9016091BA01AE014F5F5F4F36DDBC01009709F43BC08091E8008E
:207E4000877F8093E80089819A8192DE8091E8008B778093E8002DC0803859F58091E800AA
:207E6000877F8093E8008091B4018093F1008091E8008E778093E80054DD1BC08823C9F4CA
:207E80009091B8019230A8F48091E800877F8093E8009093B40145DD8091B401882331F420
:207EA0008091E30087FD02C081E001C084E08EBB6CDC8091E80083FF0AC08091EB0080624E
:207EC0008093EB008091E800877F8093E8000F900F90CF91DF911F910F91089508951F9360
:207EE0008EB3882361F01091E9001092E9008091E80083FF01C0E4DE17701093E9001F916F
:207F00000895F999FECF92BD81BDF89A992780B50895262FF999FECF1FBA92BD81BD20BDBD
:207F20000FB6F894FA9AF99A0FBE01960895F894FFCF4341544552494E4100777700080031
:207F40000000000000080112011001020000084123360001000201000109023E00020100FF
:207F600080320904000001020201000524001001042402040524060001070582030800FF0C
:207F800009040100020A000000070504021000010705830210000104030904220341007216
:207FA000006400750069006E006F0020004C0065006F006E006100720064006F0000001836
:1A7FC00003410072006400750069006E006F0020004C004C004300000000D7
:00000001FF
