:100000000C94FC000C9424010C9424010C94240105
:100010000C9424010C9424010C9424010C942401CC
:100020000C9424010C9424010C941C040C942401C1
:100030000C9424010C9424010C9424010C942401AC
:100040000C9424010C9424010C9424010C9424019C
:100050000C9424010C9424010C9424010C9402139C
:100060000C9424010C94C4120C949E120C94240140
:100070000C9424010C9424010C9424010C9424016C
:100080000C9424010C9424010C9424010C9424015C
:100090000C9424010C9424010C9424010C9424014C
:1000A0000C9424010C9424010C9424011A0541059C
:1000B0000E0741050E078905AC050E07D506E806B3
:1000C00000000000250028002B002E003100000059
:1000D0000000240027002A002D003000040404043E
:1000E00004030405020202020403020202020606DD
:1000F00006060606040402020204040408020110B3
:100100004080401020408040800802040180402050
:100110001002011080102040402005010905A101B6
:1001200015002501350045017501951005091901D6
:100130002910810205012507463B017504950165DB
:10014000140939814265009501810126FF0046FFAF
:100150000009300931093209357508950481020614
:1001600000FF0920950181020A212695089102C00D
:100170000902290001010080FA09040000020300BD
:100180000000092111010001225600070502034069
:100190000010070581034000041201000200000066
:1001A000400D0F9200000101020001240350004F96
:1001B000004B004B0045004E00200043004F004E16
:1001C00000540052004F004C004C0045005200000B
:1001D000001C0348004F0052004900200043004F1C
:1001E000002E002C004C00540044002E000000049F
:1001F00003090400C62EC22E11241FBECFEFDAE081
:10020000DEBFCDBF13E0A0E0B1E0E4E7F4E602C05A
:1002100005900D92A233B107D9F724E0A2E3B3E031
:1002200001C01D92AF3AB207E1F710E0CBEFD0E08A
:1002300004C02197FE010E94E22FCA3FD107C9F7EF
:100240000E94C5170C942D320C9400002091E400FC
:100250003091E50095E64091EC00842F817040FFDD
:1002600022C08091E80080FD1CC080913503882366
:1002700091F0853091F08091EB0085FD10C04091A8
:10028000E4005091E5004217530729F39A01915079
:1002900011F784E0089582E0089583E0089581E0F5
:1002A000089580E008954091E80042FFDECF089570
:1002B0008091370387FF11C08091E80082FD05C05F
:1002C000809135038111F8CF11C08091E8008B77C0
:1002D0000BC080913503882349F08091E80080FFAE
:1002E000F8CF8091E8008E778093E8000895CF9250
:1002F000DF92EF92FF920F931F93CF93DF93CDB7CF
:10030000DEB762970FB6F894DEBF0FBECDBF8B018C
:100310006EE073E0CE0107960E944312BE01695F52
:100320007F4FC8010E94DE107C016BE371E0CE01BB
:1003300001960E944312BE016F5F7F4FC8010E9469
:10034000DE10AC014F5F5F4F9701B801CE010D96F3
:100350000E9458128D859E85009729F00E94192FC2
:100360006B017C0103C0C12CD12C7601CE010D960E
:100370000E94F111CE0101960E94F111CE01079663
:100380000E94F111C60162960FB6F894DEBF0FBE4F
:10039000CDBFDF91CF911F910F91FF90EF90DF9034
:1003A000CF900895EF92FF920F931F93CF93DF9317
:1003B00000D000D000D0CDB7DEB78C01F62ECE0134
:1003C00001960E942212CE0101960E94B715E82ED6
:1003D000CE0101960E94F11181E4E81204C0F801F7
:1003E000828D938D85C16F2DCE0101960E942212C0
:1003F000CE0101960E94B715E82ECE0101960E940B
:10040000F111F2E4EF1204C0F801808D918D70C1FA
:100410006F2DCE0101960E942212CE0101960E94FC
:10042000B715E82ECE0101960E94F111F8E5EF1202
:1004300004C0F801848D958D5BC16F2DCE010196AE
:100440000E942212CE0101960E94B715E82ECE011D
:1004500001960E94F111F9E5EF1204C0F8018689B6
:10046000978946C16F2DCE0101960E942212CE01BE
:1004700001960E94B715E82ECE0101960E94F11157
:10048000F2E5EF1204C0F80180A191A131C16F2DF6
:10049000CE0101960E942212CE0101960E94B7154C
:1004A000E82ECE0101960E94F111F3E5EF1204C08F
:1004B000F80184A195A11CC16F2DCE0101960E9467
:1004C0002212CE0101960E94B715E82ECE010196A8
:1004D0000E94F111FCE4EF1204C0F801868D978DA3
:1004E00007C16F2DCE0101960E942212CE01019606
:1004F0000E94B715E82ECE0101960E94F111FDE48D
:10050000EF1204C0F80182A193A1F2C06F2DCE01B9
:1005100001960E942212CE0101960E94B715E82E84
:10052000CE0101960E94F111F3E4EF1204C0F8012C
:1005300080A991A9DDC06F2DCE0101960E942212E3
:10054000CE0101960E94B715E82ECE0101960E94B9
:10055000F111F8E4EF1204C0F80186A597A5C8C010
:100560006F2DCE0101960E942212CE0101960E94AB
:10057000B715E82ECE0101960E94F111F0E5EF12B9
:1005800004C0F80180A591A5B3C06F2DCE010196DE
:100590000E942212CE0101960E94B715E82ECE01CC
:1005A00001960E94F111FFE4EF1204C0F80186A148
:1005B00097A19EC06F2DCE0101960E942212CE01FE
:1005C00001960E94B715E82ECE0101960E94F11106
:1005D000F1E6EF1609F447C06F2DCE0101960E9497
:1005E0002212CE0101960E94B715E82ECE01019687
:1005F0000E94F111F2E6EF1609F44AC06F2DCE0108
:1006000001960E942212CE0101960E94B715E82E93
:10061000CE0101960E94F111F3E6EF1609F44DC0E8
:100620006F2DCE0101960E942212CE0101960E94EA
:10063000B715E82ECE0101960E94F111F4E6EF16EF
:1006400009F450C06F2DCE0101960E942212CE01F6
:1006500001960E94B715E82ECE0101960E94F11175
:10066000F5E6EF1204C0F8018681978141C06F2D35
:10067000CE0101960E942212CE0101960E94B7156A
:10068000E82ECE0101960E94F111F6E6EF1204C0A9
:10069000F801848595852CC06F2DCE0101960E94AE
:1006A0002212CE0101960E94B715E82ECE010196C6
:1006B0000E94F111F7E6EF1204C0F80180859185E0
:1006C00017C06F2DCE0101960E942212CE01019615
:1006D0000E94B715F82ECE0101960E94F111F8E69E
:1006E000FF1204C0F8018285938502C08AE590E07C
:1006F00026960FB6F894DEBF0FBECDBFDF91CF9127
:100700001F910F91FF90EF900895CF93DF93EC012D
:100710001982188220E830E03B832A838FEF90E033
:100720009D838C831F821E82998788879B878A87F7
:100730001D861C8680E490E09F878E8740EC50E009
:10074000598B488B5B8B4A8B9D8B8C8B41E050E0A7
:100750005F8B4E8B42E050E0598F488F44E050E071
:100760005B8F4A8F48E050E05D8F4C8F40E150E056
:100770005F8F4E8F40E250E059A348A39BA38AA30A
:100780003DA32CA380E091E09FA38EA380E092E0A4
:1007900099A788A780E094E09BA78AA780E098E0CB
:1007A0009DA78CA780E090E19FA78EA780E090E2B4
:1007B00099AB88AB1AAA1BAA1CAA1DAA0E94F61202
:1007C0006EAB7FAB88AF99AFDF91CF910895982F33
:1007D000973058F59093E900981739F07091EC0034
:1007E0002091ED005091F00003C0242F762F50E0AF
:1007F00021FF19C03091EB003E7F3093EB00309128
:10080000ED003D7F3093ED003091EB00316030938F
:10081000EB007093EC002093ED005093F0002091DA
:10082000EE0027FF07C09F5FD3CF8F708093E90052
:1008300081E0089580E008951F920F920FB60F9205
:1008400011242F933F934F935F936F937F938F93D5
:100850009F93AF93BF93EF93FF938091E10082FF4B
:1008600009C08091E20082FF05C08091E1008B7F8A
:100870008093E1008091DA0080FF1BC08091D80056
:1008800080FF17C08091DA008E7F8093DA0080911C
:10089000D90080FF0BC080E189BD82E189BD09B428
:1008A00000FEFDCF81E08093350303C019BC109298
:1008B00035038091E10080FF17C08091E20080FF46
:1008C00013C08091E2008E7F8093E2008091E2006D
:1008D00080618093E2008091D80080628093D8008C
:1008E00019BC85E0809335038091E10084FF2EC020
:1008F0008091E20084FF2AC080E189BD82E189BD48
:1009000009B400FEFDCF8091D8008F7D8093D80080
:100910008091E1008F7E8093E1008091E2008F7EE4
:100920008093E2008091E20081608093E2008091F8
:100930003403882311F084E007C08091E30087FD31
:1009400002C081E001C083E0809335038091E10023
:1009500083FF22C08091E20083FF1EC08091E100EE
:10096000877F8093E10082E0809335031092340307
:100970008091E1008E7F8093E1008091E2008E7F84
:100980008093E2008091E20080618093E20042E384
:1009900060E080E00E94E703FF91EF91BF91AF918B
:1009A0009F918F917F916F915F914F913F912F9187
:1009B0000F900FBE0F901F9018950F931F93CF931A
:1009C000DF93CDB7DEB7AA970FB6F894DEBF0FBEA0
:1009D000CDBF80913503882309F43CC21091E90012
:1009E0001F709091EC00892F817090FD80E8182B8A
:1009F0001092E9008091E80083FF1EC2E7E3F3E074
:100A000088E08E0F9091F10091938E13FBCF80912F
:100A1000E80083FF03C28091370390913803492F88
:100A200050E04A30510508F0F9C1FA01EA5AFF4F87
:100A30000C94E22F803821F0823809F0EFC108C011
:100A40008091320390913303992389F082600FC023
:100A500080913B038F70873008F0E0C18093E900FC
:100A60008091EB0085FB882780F91092E900909136
:100A7000E800977F9093E8008093F1001092F100D6
:100A80009FC1282F2D7F09F0C9C1882319F082301A
:100A900061F0C4C180913903813009F0BFC1933046
:100AA00009F080E0809333032EC0809139038111D7
:100AB0002AC080913B038F702FEF280F263008F05B
:100AC000ADC18093E9002091EB0020FF1CC0933062
:100AD00021F48091EB00806214C09091EB00906152
:100AE0009093EB0021E030E0A90102C0440F551FB4
:100AF0008A95E2F74093EA001092EA008091EB00B9
:100B000088608093EB001092E9008091E800877F75
:100B10005AC1811183C1009139030F778091E3009D
:100B20008078802B8093E3008091E800877F80931A
:100B3000E8000E9458018091E80080FFFCCF80917E
:100B4000E30080688093E300011102C082E001C0ED
:100B500083E08093350362C18058823008F05EC123
:100B60008091390390913A038C3D53E0950709F049
:100B700080C083E08A838AE289834FB7F894DE01DC
:100B8000139620E03EE051E2E32FF0E0509357004F
:100B9000E49120FF03C0E295EF703F5FEF708E2F6E
:100BA00090E0EA3010F0C79601C0C0968D939D93F7
:100BB0002F5F243149F74FBF8091E800877F8093F2
:100BC000E80020913D0330913E032A32310510F0B8
:100BD0002AE230E040E0BE016F5F7F4F2115310512
:100BE000A1F180913503882309F4D9C0853009F437
:100BF000D6C08091E80083FDD2C08091E80082FDDC
:100C000033C08091E80080FFE9CF4091F3008091EC
:100C1000F20090E0942BFB01BF012115310551F04A
:100C20008034910538F441914093F100215031090D
:100C30000196F2CF41E08034910509F040E08091C7
:100C4000E8008E778093E800C9CF4111CACF0CC06D
:100C500080913503882309F4A2C0853009F49FC030
:100C60008091E80083FD9BC08091E80082FFF0CF77
:100C700096C0292F332723303105D9F06CF4213069
:100C8000310509F4DDC02230310509F0C7C089E221
:100C900090E0E0E7F1E031C02132310509F4D5C040
:100CA0002232310509F0BAC086E590E0EAE1F1E0D0
:100CB00024C099278130910571F08230910599F017
:100CC000892B09F0ABC0EFEEF1E0E4918E2F90E0BC
:100CD000EFEEF1E00FC0E1EDF1E0E4918E2F90E056
:100CE000E1EDF1E007C0EBEAF1E0E4918E2F90E056
:100CF000EBEAF1E0009709F491C02091E800277F2A
:100D00002093E80020913D0330913E0328173907D6
:100D100008F4C90140E0009789F1209135032223AE
:100D200009F43DC02530D9F12091E80023FD37C0FA
:100D30002091E80022FD2FC02091E80020FFEBCF9A
:100D40004091F3002091F20030E0342B009759F0ED
:100D50002034310540F444914093F10031960197DD
:100D60002F5F3F4FF3CF41E02034310509F040E0E1
:100D70002091E8002E772093E800CDCF4111CDCF10
:100D80000AC080913503882351F0853041F080916D
:100D9000E80083FD04C08091E80082FFF2CF8091DB
:100DA000E8008B778093E80039C08038B9F58091EE
:100DB000E800877F8093E800809134038093F100FE
:100DC0008091E8008E778093E8000E94580126C049
:100DD000811124C090913903923000F58091E80090
:100DE000877F8093E800909334030E94580180919C
:100DF0003403811106C08091E30087FD02C081E0C9
:100E000001C084E08093350342E360EC82E00E94FD
:100E1000E70342E361EC81E00E94E7038091E80090
:100E200083FF0AC08091E800877F8093E80080916B
:100E3000EB0080628093EB001F701093E9000AC002
:100E400082E190E0E9E9F1E058CF89E090E0E2E862
:100E5000F1E053CFAA960FB6F894DEBF0FBECDBF18
:100E6000DF91CF911F910F910895EF92FF920F9311
:100E70001F93CF93DF93CDB7DEB727970FB6F894C4
:100E8000DEBF0FBECDBF80913503843009F06CC04A
:100E900082E08093E9008091E80082FF2CC080917D
:100EA000E80085FF23C00E94260181111FC007E0D2
:100EB00010E0CE0101967C018091E80085FD0CC018
:100EC0008091E8008B778093E8000E94DD040E9407
:100ED0002601882341F00AC08091F100D7018D934B
:100EE0007D01015011090115110531F78091E800CC
:100EF0008B778093E80081E08093E9008091E8009F
:100F000080FF32C00E942601882369F08091E800AA
:100F10008E778093E80088E0E8E4F3E0DF011D923B
:100F20008A95E9F721C008E010E088E4E82E83E024
:100F3000F82E8091E80085FD0CC08091E8008E7746
:100F40008093E8000E94DD040E942601882341F07E
:100F5000DDCFF70181917F018093F10001501109EC
:100F60000115110531F7D2CF27960FB6F894DEBFE1
:100F70000FBECDBFDF91CF911F910F91FF90EF90EA
:100F800008954F925F927F928F929F92AF92BF92FD
:100F9000CF92DF92EF92FF920F931F93CF93DF9345
:100FA0001F92CDB7DEB72C01762E48015901498337
:100FB0000E94F612F20166AB77AB80AF91AF02A947
:100FC00013A924A935A9DC01CB01801B910BA20B2D
:100FD000B30B498188159905AA05BB0530F47092B9
:100FE0004D0340934E0382810FC08C0C9D1CAE1CA0
:100FF000BF1C88159905AA05BB0580F4F201828102
:1010000080934D0380934E0380934B0380934C0356
:101010000E9435070E94DD0481E011C00E94F61293
:10102000F20162AB73AB84AB95AB828180934D03CD
:1010300080934E0380934B0380934C0380E00F908A
:10104000DF91CF911F910F91FF90EF90DF90CF90A4
:10105000BF90AF909F908F907F905F904F9008953A
:101060004F925F927F928F929F92AF92BF92CF9258
:10107000DF92EF92FF920F931F93CF93DF931F9214
:10108000CDB7DEB72C01762E4801590149830E9465
:10109000F612F20166AB77AB80AF91AF02A913A94C
:1010A00024A935A9DC01CB01801B910BA20BB30B4A
:1010B000498188159905AA05BB0530F470924B0348
:1010C00040934C0382810FC08C0C9D1CAE1CBF1C36
:1010D00088159905AA05BB0580F4F20182818093E9
:1010E0004B0380934C0380934D0380934E030E94E7
:1010F00035070E94DD0481E011C00E94F612F20162
:1011000062AB73AB84AB95AB828180934B038093CE
:101110004C0380934D0380934E0380E00F90DF914A
:10112000CF911F910F91FF90EF90DF90CF90BF90E4
:10113000AF909F908F907F905F904F9008952F92E7
:101140003F924F925F926F927F928F929F92AF9257
:10115000BF92CF92DF92EF92FF920F931F93CF93A4
:10116000DF9300D000D0CDB7DEB71C016B01470183
:10117000580129833A834B835C830E94F612F10164
:1011800066AB77AB80AF91AF42A853A864A875A8AF
:10119000DC01CB0184199509A609B70929813A8197
:1011A0004B815C8182179307A407B50758F480919F
:1011B000480390914903C82AD92AD0924903C09282
:1011C00048030CC089019A01080D191D2A1D3B1DF9
:1011D00080179107A207B30780F4F1018281809301
:1011E0004B0380934C0380934D0380934E030E94E6
:1011F00035070E94DD0481E011C00E94F612F10162
:1012000062AB73AB84AB95AB828180934B038093CD
:101210004C0380934D0380934E0380E00F900F901A
:101220000F900F90DF91CF911F910F91FF90EF9052
:10123000DF90CF90BF90AF909F908F907F906F90F6
:101240005F904F903F902F900895CF92DF92EF9252
:10125000FF920F931F93CF93DF93EC010E944C13E7
:101260004A815B816A857B85F0E9CF2EDD24D394AA
:10127000E12CF12C08EC10E020E030E0CE010E94DF
:1012800030088111EDCF4E815F816A817B81E4E678
:10129000CE2ED12CE12CF12C08EC10E020E030E037
:1012A000CE010E9430088111EECF4A815B816A85B0
:1012B0007B8538ECC32ED12CE12CF12C08EE13E009
:1012C00020E030E0CE010E9430088111EECF6A8D1F
:1012D0007B8D14EFE12EFF24F39400E010E028EC66
:1012E00030E040E050E0CE010E949F088111EFCF36
:1012F0006EA57FA518EEE12E13E0F12E00E010E0C0
:1013000028EC30E040E050E0CE010E949F088111BF
:10131000EFCF6A8D7B8D10EDE12E17E0F12E00E00E
:1013200010E028EC30E040E050E0CE010E949F0841
:101330008111EFCFDF91CF911F910F91FF90EF902F
:10134000DF90CF9008952F923F924F925F926F92CD
:101350007F928F929F92AF92BF92CF92DF92EF9245
:10136000FF920F931F93CF93DF93EC014B015A0130
:1013700060E173E0C4010E941111811121C063E199
:1013800073E0C4010E94111181111DC06AE173E074
:10139000C4010E941111811119C062E273E0C401FD
:1013A0000E941111811115C068E273E0C4010E940E
:1013B000111191E0312C811101C090E0292E0CC057
:1013C00045E0242E08C034E0232E05C023E0222E61
:1013D00002C092E0292E312C60E173E0C5010E9429
:1013E0001111811121C063E173E0C5010E94111147
:1013F00081111DC06AE173E0C5010E9411118111C4
:1014000019C062E273E0C5010E941111811115C07B
:1014100068E273E0C5010E94111191E0512C811125
:1014200001C090E0492E0CC085E0482E08C004E0C1
:10143000402E05C013E0412E02C0B2E04B2E512CCD
:10144000A5E0AA2EB12C688D798D16E9E12EF12C3C
:1014500000E010E026E930E040E050E0CE010E94DC
:101460009F088111F0CF81E0A81AB10861F74E8181
:101470005F816A817B81E8ECCE2ED12CE12CF12CAE
:101480000CE211E020E030E0CE010E943008811132
:10149000EECF6A8D7B8D18EEE12E13E0F12E00E089
:1014A00010E026E930E040E050E0CE010E949F08C5
:1014B0008111EFCF6A8D7B8D18EEE12E13E0F12EB6
:1014C00000E010E026E930E040E050E0CE010E946C
:1014D0009F088111EFCF488559856A817B8128EC6F
:1014E000C22ED12CE12CF12C04E610E020E030E0FB
:1014F000CE010E9430088111EECF488559856A815E
:101500007B8198ECC92ED12CE12CF12C04E610E063
:1015100020E030E0CE010E9430088111EECF6A8DCC
:101520007B8D14ECE12E19E0F12E00E010E026E9AD
:1015300030E040E050E0CE010E949F088111EFCFE3
:101540006A8D7B8D10E9E12EFF24F39400E010E01A
:1015500026E930E040E050E0CE010E949F08811172
:10156000EFCF6A8D7B8D10E9E12EFF24F39400E02C
:1015700010E026E930E040E050E0CE010E949F08F4
:101580008111EFCF812C912C488559856A817B810F
:10159000FCE2CF2EDD24D394E12CF12C0CE81AE0F0
:1015A00020E030E0CE010E9430088111EDCF86E0CE
:1015B0008816910414F0520101C05101612C712C64
:1015C0006A147B04B1F04E815F816A817B81E8EC13
:1015D000CE2ED12CE12CF12C04E610E020E030E0FE
:1015E000CE010E9430088111EECF8FEF681A780A81
:1015F000E7CF6A8D7B8D10E2E12E13E0F12E00E043
:1016000010E026E930E040E050E0CE010E949F0863
:101610008111EFCF6A8D7B8D10E2E12E13E0F12E68
:1016200000E010E026E930E040E050E0CE010E940A
:101630009F088111EFCF6A8D7B8D10E2E12E13E0C0
:10164000F12E00E010E026E930E040E050E0CE016D
:101650000E949F088111EFCF6A8D7B8D10E2E12EF1
:1016600013E0F12E00E010E026E930E040E050E029
:10167000CE010E949F088111EFCF6E897F8914E609
:10168000E12EF12C00E010E026E930E040E050E0EF
:10169000CE010E949F088111F0CFA5E0AA2EB12CA7
:1016A0006A8D7B8D14E6E12EF12C00E010E026E936
:1016B00030E040E050E0CE010E949F088111F0CF61
:1016C0004A815B816A857B85E4E6CE2ED12CE12CB4
:1016D000F12C06E910E020E030E0CE010E94300855
:1016E0008111EECF81E0A81AB108D1F64A815B8161
:1016F0006C857D8534E6C32ED12CE12CF12C06E9D6
:1017000010E020E030E0CE010E9430088111EECFE1
:10171000488559856A817B8124E6C22ED12CE12C33
:10172000F12C06E910E020E030E0CE010E94300804
:101730008111EECF95E0A92EB12C6A8D7B8D14E638
:10174000E12EF12C00E010E026E930E040E050E02E
:10175000CE010E949F088111F0CF4A815B816C8588
:101760007D85B4E6CB2ED12CE12CF12C06E910E0DE
:1017700020E030E0CE010E9430088111EECF81E000
:10178000A81AB108D1F66C8D7D8D14ECE12E19E00C
:10179000F12E00E010E022E030E040E050E0CE0129
:1017A0000E949F088111EFCF6A8D7B8D10EBE12E97
:1017B00014E0F12E00E010E026E930E040E050E0D7
:1017C000CE010E949F088111EFCF488559856A811B
:1017D0007B81E4E6CE2ED12CE12CF12C06E910E041
:1017E00020E030E0CE010E9430088111EECF6A8DFA
:1017F0007B8D10E7E12E17E1F12E00E010E026E9E5
:1018000030E040E050E0CE010E949F088111EFCF10
:101810006A8D7B8D18E8E12E13E1F12E00E010E0D7
:1018200026E930E040E050E0CE010E949F0881119F
:10183000EFCFCE010E9425096A8D7B8D1CE2E12E3F
:10184000FF24F39400E010E026E930E040E050E0AF
:10185000CE010E949F088111EFCF6A8D7B8D18E821
:10186000E12E13E1F12E00E010E026E930E040E047
:1018700050E0CE010E949F088111EFCF93E2A92E84
:10188000B12C688D798D1CE2E12EFF24F39400E0E9
:1018900010E026E930E040E050E0CE010E949F08D1
:1018A0008111EFCF81E0A81AB10859F76A8D7B8DBD
:1018B00018EEE12E13E0F12E00E010E026E930E012
:1018C00040E050E0CE010E949F088111EFCF6A8D69
:1018D0007B8D18EEE12E13E0F12E00E010E026E9FA
:1018E00030E040E050E0CE010E949F088111EFCF30
:1018F000488559856A817B81F8ECCF2ED12CE12C6B
:10190000F12C04E610E020E030E0CE010E94300827
:101910008111EECF488559856A817B81E8ECCE2E16
:10192000D12CE12CF12C04E610E020E030E0CE01D7
:101930000E9430088111EECF6A8D7B8D14ECE12E70
:1019400019E0F12E00E010E026E930E040E050E040
:10195000CE010E949F088111EFCF6A8D7B8D10E927
:10196000E12EFF24F39400E010E026E930E040E0AF
:1019700050E0CE010E949F088111EFCF6A8D7B8DD0
:1019800010E9E12EFF24F39400E010E026E930E0B6
:1019900040E050E0CE010E949F088111EFCF8FEF11
:1019A000881A980A8CE08816910409F0EDCD6C8DA8
:1019B0007D8D10EAE12E1BEBF12E0DE010E026E903
:1019C00030E040E050E0CE010E949F088111EFCF4F
:1019D000DF91CF911F910F91FF90EF90DF90CF900B
:1019E000BF90AF909F908F907F906F905F904F903F
:1019F0003F902F900895EF92FF920F931F93CF93F4
:101A0000DF93EC01688D798D18EBE12E1BE0F12E50
:101A100000E010E02CE231E040E050E0CE010E9416
:101A20009F088111EFCF688D798D18EBE12E1BE0B7
:101A3000F12E00E010E02CE231E040E050E0CE0179
:101A40000E949F088111EFCF688D798D18EBE12EF0
:101A50001BE0F12E00E010E02CE231E040E050E02D
:101A6000CE010E949F088111EFCF688D798D18EB10
:101A7000E12E1BE0F12E00E010E02CE231E040E02E
:101A800050E0CE010E949F088111EFCF688D798DC3
:101A900018EBE12E1BE0F12E00E010E02CE231E02B
:101AA00040E050E0CE010E949F088111EFCF688D89
:101AB000798D18EBE12E1BE0F12E00E010E02CE216
:101AC00031E040E050E0CE010E949F088111EFCF4D
:101AD000DF91CF911F910F91FF90EF9008956F923A
:101AE0007F928F929F92AF92BF92CF92DF92EF92AE
:101AF000FF920F931F93CF93DF93EC013B016C8D0B
:101B00007D8D10EBE12E14E0F12E00E010E024E6D4
:101B100030E040E050E0CE010E949F088111EFCFFD
:101B20006A8D7B8D10EDE12E17E0F12E00E010E0C4
:101B300024E630E040E050E0CE010E949F08811191
:101B4000EFCF68A179A110EDE12E17E0F12E00E0B2
:101B500010E024E630E040E050E0CE010E949F0813
:101B60008111EFCF4A815B816C857D8514E6C12EA2
:101B7000D12CE12CF12C04E610E020E030E0CE0185
:101B80000E9430088111EECFB5E0AB2EB12C6A8DEA
:101B90007B8D14EFE12EFF24F39400E010E024E6A7
:101BA00030E040E050E0CE010E949F088111EFCF6D
:101BB0006A8D7B8D14EFE12EFF24F39400E010E09A
:101BC00024E630E040E050E0CE010E949F08811101
:101BD000EFCF812C912C86149704B4F44A815B8159
:101BE0006A857B85E8ECCE2ED12CE12CF12C04E625
:101BF00010E020E030E0CE010E9430088111EECFED
:101C00008FEF881A980AE7CF6A8D7B8D1CE2E12E50
:101C1000FF24F39400E010E024E630E040E050E0E0
:101C2000CE010E949F088111EFCF488559856A81B6
:101C30007B8134E6C32ED12CE12CF12C04E610E09C
:101C400020E030E0CE010E9430088111EECF812CDF
:101C5000912C86149704B4F44A815B816C857D8550
:101C600028ECC22ED12CE12CF12C04E610E020E06F
:101C700030E0CE010E9430088111EECF8FEF881A3C
:101C8000980AE7CF81E0A81AB10809F080CF9AE05E
:101C9000C92ED12C688D798D18ECE12EF12C00E045
:101CA00010E024E630E040E050E0CE010E949F08C2
:101CB0008111F0CF81E0C81AD10861F7DF91CF918F
:101CC0001F910F91FF90EF90DF90CF90BF90AF905A
:101CD0009F908F907F906F900895AF92BF92CF9218
:101CE000DF92EF92FF920F931F93CF93DF93EC015C
:101CF0004A815B816C857D8582E3C82ED12CE12CE5
:101D0000F12C08EE13E020E030E0CE010E94300814
:101D10008111EECF488559856C857D8502E3C02E03
:101D2000D12CE12CF12C04E610E020E030E0CE01D3
:101D30000E9430088111EECF488559856A817B81E8
:101D400012E3C12ED12CE12CF12C04E610E020E0AE
:101D500030E0CE010E9430088111EECF48855985D0
:101D60006A857B85B2E3CB2ED12CE12CF12C04E6E5
:101D700010E020E030E0CE010E9430088111EECF6B
:101D8000A0E1AA2EB12C288D398D4A815B816A850C
:101D90007B8518EEE12E13E0F12E00E010E0CE017D
:101DA0000E94C6158111EFCF81E0A81AB10859F73A
:101DB0004A815B816A857B85E2E3CE2ED12CE12CC2
:101DC000F12C06E910E020E030E0CE010E9430085E
:101DD0008111EECF488559856A857B8532E3C32E14
:101DE000D12CE12CF12C06E910E020E030E0CE010E
:101DF0000E9430088111EECF488559856C857D851C
:101E000022E3C22ED12CE12CF12C08EB1BE020E0C8
:101E100030E0CE010E9430088111EECF94E0A92E6F
:101E2000B12C288D398D4A815B816C857D851CE8BC
:101E3000E12E1AE0F12E00E010E0CE010E94C6155E
:101E40008111EFCF4A815B816C857D85C12CD12CBE
:101E5000760104E610E020E030E0CE010E94300878
:101E60008111F0CF81E0A81AB108D9F6DF91CF91A6
:101E70001F910F91FF90EF90DF90CF90BF90AF90A8
:101E800008950C949D2F0C94952FCF92DF92EF9292
:101E9000FF920F931F93CF93DF93EC016A017B01B5
:101EA0000E94F6126EAB7FAB88AF99AF0AA91BA94F
:101EB0002CA93DA9DC01CB01801B910BA20BB30B1C
:101EC0008C159D05AE05BF05A8F40E94F6126EABF9
:101ED0007FAB88AF99AF8A8180934B0380934C038B
:101EE00080934D0380934E030E9435070E94DD04CA
:101EF00081E007C00E94F6126AAB7BAB8CAB9DAB56
:101F000080E0DF91CF911F910F91FF90EF90DF90D4
:101F1000CF9008950895CF92DF92EF92FF920F93A2
:101F20001F93CF93DF936C017A018B01C0E0D0E067
:101F3000CE15DF0589F0D8016D918D01D601ED91A7
:101F4000FC910190F081E02DC6010995892B11F4D7
:101F50007E0102C02196ECCFC701DF91CF911F9186
:101F60000F91FF90EF90DF90CF900895FC01918D3D
:101F7000828D981761F0828DDF01A80FB11D5D96EB
:101F80008C91928D9F5F9F73928F90E008958FEF59
:101F90009FEF0895FC01918D828D981731F0828D0D
:101FA000E80FF11D858D90E008958FEF9FEF089564
:101FB000FC01918D228D892F90E0805C9F4F821BC8
:101FC00091098F739927089580E593E00E94D80FB7
:101FD00021E0892B09F420E0822F0895FC01848DF3
:101FE000DF01A80FB11DA35ABF4F2C91848D90E043
:101FF00001968F739927848FA689B7892C93A0891E
:10200000B1898C9180648C93938D848D981306C0D4
:102010000288F389E02D80818F7D80830895EF927F
:10202000FF920F931F93CF93DF93EC0181E0888F92
:102030009B8D8C8D981305C0E889F989808185FD79
:1020400024C0F62E0B8D10E00F5F1F4F0F7311276A
:10205000E02E8C8DE8120CC00FB607FCFACFE88991
:10206000F989808185FFF5CFCE010E94EE0FF1CF77
:102070008B8DFE01E80FF11DE35AFF4FF0820B8FAD
:10208000EA89FB898081806207C0EE89FF896083CD
:10209000E889F98980818064808381E090E0DF9124
:1020A000CF911F910F91FF90EF900895CF93DF9301
:1020B000EC01888D8823C9F0EA89FB89808185FD40
:1020C00005C0A889B9898C9186FD0FC00FB607FCA1
:1020D000F5CF808185FFF2CFA889B9898C9185FFE2
:1020E000EDCFCE010E94EE0FE7CFDF91CF910895A3
:1020F00080E090E0892B29F00E94E40F81110C947C
:10210000000008950E94DF31CF93DF93EC018881B6
:102110009981009711F00E947D30198218821D82EA
:102120001C821B821A82DF91CF9108950F931F9317
:10213000CF93DF93EC0188819981009729F02A8160
:102140003B812617370788F48B016F5F7F4F0E9412
:102150001531009761F0998388831B830A832C8152
:102160003D81232B11F4FC01108281E001C080E04D
:10217000DF91CF911F910F910895EF92FF920F93EE
:102180001F93CF93DF93EC017B018A01BA010E9478
:102190009610811104C0CE010E94841007C01D83D7
:1021A0000C83B701888199810E940C32CE01DF91A6
:1021B000CF911F910F91FF90EF900895CF93DF93F0
:1021C000FC0124813581232B71F0FB01DC01CD91D1
:1021D000DC9160817181CE010E941332009719F069
:1021E0008C1B9D0B02C08FEF9FEFDF91CF91089565
:1021F000CF93DF93FC0124813581232B69F0C081CB
:10220000D181062E000C770BCE010E94F831009789
:1022100019F08C1B9D0B02C08FEF9FEFDF91CF91C8
:102220000895FC0124813581232B31F421E06115CF
:102230007105A1F0FB0108C0FC018081918161154D
:10224000710531F421E0FC018081882339F005C05B
:102250000E94033221E0892B09F020E0822F0895AB
:10226000EF92FF920F931F93CF93DF93FC01248192
:1022700035816115710511F480E019C041155105D2
:10228000A9F07B01EC018A01020F131FB8010E9423
:102290009610882389F3288139818C819D81B7012B
:1022A000820F931F0E940C321D830C8381E0DF910B
:1022B000CF911F910F91FF90EF900895CF93DF93EF
:1022C000EC016115710561F0FB0101900020E9F757
:1022D0003197AF01461B570B0E943011811103C08B
:1022E000CE010E948410CE01DF91CF910895CF934B
:1022F000DF93EC01FB0144815581608171810E9473
:102300003011811103C0CE010E948410CE01DF91F3
:10231000CF910895CF93DF93EC016115710559F0CA
:10232000FB0101900020E9F73197AF01461B570BE5
:102330000E94BD1002C00E948410CE01DF91CF9197
:102340000895CF93DF93EC01FB018617970761F0A7
:10235000608171816115710529F0448155810E9468
:10236000BD1002C00E948410CE01DF91CF9108956C
:102370000F931F93CF93DF938C01EB01FC018081BE
:1023800091810097B1F0688179816115710579F0CB
:10239000428153812C813D814217530740F00E94B6
:1023A0000C328C819D81F8019583848313C00E9437
:1023B0007D3088819981F801918380838A819B8116
:1023C000938382838C819D81958384831982188273
:1023D0001B821A821D821C82DF91CF911F910F9167
:1023E0000895FC01808191810C947D300F931F939F
:1023F000CF93DF93CDB7DEB762970FB6F894DEBF09
:102400000FBECDBF8C01CB01F80111821082138267
:1024100012821582148250E0BE016F5F7F4F0E94CE
:10242000402FBE016F5F7F4FC8010E948A116296E4
:102430000FB6F894DEBF0FBECDBFDF91CF911F91D5
:102440000F910895CF93DF9300D0CDB7DEB7FC0195
:1024500011821082138212821582148269831A8279
:10246000BE016F5F7F4F0E948A110F900F90DF9126
:10247000CF910895FC01118210821382128215827D
:1024800014820C94A111FC01118210821382128219
:10249000158214826115710551F0FB010190002035
:1024A000E9F73197AF01461B570B0C94BD10089507
:1024B000BF92CF92DF92EF92FF920F931F93CF9331
:1024C000DF937C016B018A01E9012417350720F4B1
:1024D000812F8901C42FD82F60E373E0C7010E94C8
:1024E0004312D60114968D919C91159708171907E0
:1024F000D0F48C179D0708F4EC01D601ED91FC9106
:102500001197EC0FFD1FB08010824D915C91BA01C4
:10251000600F711FC7010E948A11D601ED91FC91D5
:10252000EC0FFD1FB082C701DF91CF911F910F917A
:10253000FF90EF90DF90CF90BF9008951F920F9281
:102540000FB60F9211242F933F934F935F936F9386
:102550007F938F939F93AF93BF93EF93FF9380E508
:1025600093E00E94EE0FFF91EF91BF91AF919F9189
:102570008F917F916F915F914F913F912F910F902C
:102580000FBE0F901F9018951F920F920FB60F92CB
:1025900011242F938F939F93EF93FF93E091600308
:1025A000F09161038081E0916603F091670382FD01
:1025B00012C09081809169038F5F8F7320916A03AD
:1025C000821751F0E0916903F0E0E05BFC4F958FDA
:1025D0008093690301C08081FF91EF919F918F915A
:1025E0002F910F900FBE0F901F9018952FB7F89452
:1025F0006091440370914503809146039091470395
:102600002FBF08951F920F920FB60F9211242F9390
:102610003F938F939F93AF93BF9380914403909187
:102620004503A0914603B09147033091430323E053
:10263000230F2D3720F40196A11DB11D05C026E8FA
:10264000230F0296A11DB11D2093430380934403E1
:1026500090934503A0934603B093470380913F03B3
:1026600090914003A0914103B09142030196A11DB6
:10267000B11D80933F0390934003A0934103B09317
:102680004203BF91AF919F918F913F912F910F90F6
:102690000FBE0F901F901895AF92BF92CF92DF920E
:1026A000EF92FF920F931F93CF93DF93EC016EA5F0
:1026B0007FA518EEE12E13E0F12E00E010E028ECEB
:1026C00030E040E050E0CE010E949F088111EFCF42
:1026D000488559856A817B8108ECC02ED12CE12C7C
:1026E000F12C08EC10E020E030E0CE010E94300830
:1026F0008111EECF14E0A12EB12C4A815B816A8555
:102700007B85B4E6CB2ED12CE12CF12C08EC10E02B
:1027100020E030E0CE010E9430088111EECF81E050
:10272000A81AB10851F76A8D7B8D14EFE12EFF24B2
:10273000F39400E010E028EC30E040E050E0CE01FF
:102740000E949F088111EFCF488559856A817B815E
:10275000F4E6CF2ED12CE12CF12C00ED17E020E097
:1027600030E0CE010E9430088111EECF6A8D7B8D62
:1027700014EFE12EFF24F39400E010E028EC30E0A9
:1027800040E050E0CE010E949F088111EFCF52E05F
:10279000A52EB12C488559856A817B8134E6C32EEC
:1027A000D12CE12CF12C00E911E020E030E0CE0149
:1027B0000E9430088111EECFAA94AB2821F0AA2400
:1027C000A394B12CE7CF6A8D7B8D1CE2E12EFF2410
:1027D000F39400E010E028EC30E040E050E0CE015F
:1027E0000E949F088111EFCF488559856A817B81BE
:1027F00094E6C92ED12CE12CF12C08EE13E020E058
:1028000030E0CE010E9430088111EECF6A8D7B8DC1
:1028100010E9E12EFF24F39400E010E028EC30E012
:1028200040E050E0CE010E949F088111EFCFDF9180
:10283000CF911F910F91FF90EF90DF90CF90BF90BD
:10284000AF900895AF92BF92CF92DF92EF92FF9236
:102850000F931F93CF93DF93EC010E944C134E8193
:102860005F816A817B8104E6C02ED12CE12CF12CA2
:1028700008EC10E020E030E0CE010E943008811129
:10288000EECF4A815B816A857B8510E9C12EDD240C
:10289000D394E12CF12C08EC10E020E030E0CE01E4
:1028A0000E9430088111EDCFB9E1AB2EB12C4885E3
:1028B00059856A817B81A4E6CA2ED12CE12CF12CAA
:1028C00008EC10E020E030E0CE010E9430088111D9
:1028D000EECF81E0A81AB10851F74A815B816A8581
:1028E0007B85F0E9CF2EDD24D394E12CF12C08EC8C
:1028F00010E020E030E0CE010E9430088111EDCFE1
:102900004E815F816A817B81E4E6CE2ED12CE12C61
:10291000F12C08EC10E020E030E0CE010E943008FD
:102920008111EECF4A815B816A857B8538ECC32EAD
:10293000D12CE12CF12C08EE13E020E030E0CE01A8
:102940000E9430088111EECF6A8D7B8D14EFE12E4D
:10295000FF24F39400E010E028EC30E040E050E089
:10296000CE010E949F088111EFCF6EA57FA518EEC2
:10297000E12E13E0F12E00E010E028EC30E040E022
:1029800050E0CE010E949F088111EFCF6A8D7B8DB0
:1029900010EDE12E17E0F12E00E010E028EC30E021
:1029A00040E050E0CE010E949F088111EFCFDF91FF
:1029B000CF911F910F91FF90EF90DF90CF90BF903C
:1029C000AF900895AF92BF92CF92DF92EF92FF92B5
:1029D0000F931F93CF93DF93EC010E944C134E8112
:1029E0005F816A817B81B4E6CB2ED12CE12CF12C66
:1029F00008EC10E020E030E0CE010E9430088111A8
:102A0000EECF4A815B816A857B85A0E9CA2EDD24F1
:102A1000D394E12CF12C08EC10E020E030E0CE0162
:102A20000E9430088111EDCFF9E1AF2EB12C48851D
:102A300059856A817B81E4E6CE2ED12CE12CF12CE4
:102A400008EC10E020E030E0CE010E943008811157
:102A5000EECF81E0A81AB10851F74A815B816A85FF
:102A60007B8538ECC32ED12CE12CF12C08EE13E041
:102A700020E030E0CE010E9430088111EECF6A8D57
:102A80007B8D14EFE12EFF24F39400E010E028EC9E
:102A900030E040E050E0CE010E949F088111EFCF6E
:102AA0006EA57FA518EEE12E13E0F12E00E010E0F8
:102AB00028EC30E040E050E0CE010E949F088111F8
:102AC000EFCF6A8D7B8D10EDE12E17E0F12E00E047
:102AD00010E028EC30E040E050E0CE010E949F087A
:102AE0008111EFCFDF91CF911F910F91FF90EF9068
:102AF000DF90CF90BF90AF9008950F931F930E94E7
:102B0000F612609358037093590380935A0390937D
:102B10005B03E0915003F09151030680F781E02DB3
:102B200080E593E0099597FF1FC00E94F61200917F
:102B300058031091590320915A0330915B03DC0133
:102B4000CB01801B910BA20BB30B0091540310918E
:102B50005503209156033091570380179107A20720
:102B6000B307B8F28FEF9FEF1F910F910895DC012B
:102B700014962D913C911597232B31F0ED91FC91FA
:102B8000309711F08081089580E008954F925F9210
:102B90006F927F928F929F92BF92CF92DF92EF922D
:102BA000FF920F931F93CF93DF931F92CDB7DEB7A2
:102BB0004C01B62E69012701380149830E94F612A3
:102BC000F40166AB77AB80AF91AF02A913A924A93A
:102BD00035A9DC01CB01801B910BA20BB30B498102
:102BE00084159505A605B705C8F480914803909112
:102BF0004903C82AD92AD0924903C0924803B09207
:102C00004B0340934C03828180934D0380934E038A
:102C10000E9435070E94DD0481E011C00E94F61277
:102C2000F40162AB73AB84AB95AB828180934B03B1
:102C300080934C0380934D0380934E0380E00F906C
:102C4000DF91CF911F910F91FF90EF90DF90CF9088
:102C5000BF909F908F907F906F905F904F9008955E
:102C6000CF93DF93FC01448155816081718180E5C0
:102C700093E00E948B0FEC0142E050E06EE273E0C3
:102C800080E593E00E948B0F8C0F9D1FDF91CF9109
:102C90000895EC015B01FCE0CF2ED12C688D798D7D
:102CA00014E6E12EF12C00E010E028EC30E040E0EA
:102CB00050E0CE010E949F088111F0CF81E0C81A38
:102CC000D10861F764E6862E912C6A8D7B8D18EE13
:102CD000E12E13E0F12E00E010E028EC30E040E0BF
:102CE00050E0CE010E949F088111EFCF6A8D7B8D4D
:102CF00018EEE12E13E0F12E00E010E028EC30E0B9
:102D000040E050E0CE010E949F088111EFCF67E9BB
:102D100072E0C5010E941111811108C06BEA72E0D6
:102D2000C5010E941111882309F44EC06A8D7B8D64
:102D300018EEE12E13E0F12E00E010E028EC30E078
:102D400040E050E0CE010E949F088111EFCF6BEA76
:102D500072E0C5010E941111882391F06A8D7B8D6C
:102D600018EEE12E13E0F12E00E010E028EC30E048
:102D700040E050E0CE010E949F088111EFCF83C058
:102D8000488559856A817B8198ECC92ED12CE12C2C
:102D9000F12C04E610E020E030E0CE010E94300883
:102DA0008111EECF6A8D7B8D18EEE12E13E0F12EAE
:102DB00000E010E028EC30E040E050E0CE010E945E
:102DC0009F088111EFCF5FC0488559856A817B815B
:102DD000B8ECCB2ED12CE12CF12C04E610E020E055
:102DE00030E0CE010E9430088111EECF6A8D7B8DDC
:102DF00018EEE12E13E0F12E00E010E028EC30E0B8
:102E000040E050E0CE010E949F088111EFCF61EABF
:102E100072E0C5010E941111882391F06A8D7B8DAB
:102E200018EEE12E13E0F12E00E010E028EC30E087
:102E300040E050E0CE010E949F088111EFCF23C0F7
:102E4000488559856A817B81E8ECCE2ED12CE12C16
:102E5000F12C04E610E020E030E0CE010E943008C2
:102E60008111EECF6A8D7B8D18EEE12E13E0F12EED
:102E700000E010E028EC30E040E050E0CE010E949D
:102E80009F088111EFCF6A8D7B8D18EEE12E13E044
:102E9000F12E00E010E028EC30E040E050E0CE0100
:102EA0000E949F088111EFCF2CE0C22ED12C688D9B
:102EB000798D14E6E12EF12C00E010E028EC30E0F2
:102EC00040E050E0CE010E949F088111F0CF81E0E8
:102ED000C81AD10861F781E0881A910809F0F5CE87
:102EE000688D798D10E1E12E17E2F12E00E010E0FF
:102EF00028EC30E040E050E0CE010E949F08F0CF87
:102F00000F931F93CF93DF9300D0CDB7DEB78C0123
:102F100060E373E00E9443120E947D1597FD0BC091
:102F200089831A8241E050E0BE016F5F7F4FC80184
:102F30000E943011F1CFC8010F900F90DF91CF9117
:102F40001F910F910895CF93DF93009779F0FC01C3
:102F500001900020E9F73197AF01481B590BBC01E4
:102F600080E593E00E948B0FEC0102C0C0E0D0E04E
:102F700042E050E06EE273E080E593E00E948B0F48
:102F80008C0F9D1FDF91CF910895CF93DF93CDB725
:102F9000DEB7CE52D1400FB6F894DEBF0FBECDBF24
:102FA000789484B5826084BD84B5816084BD85B524
:102FB000826085BD85B5816085BD80916E00816030
:102FC00080936E00109281008091810082608093D6
:102FD00081008091810081608093810080918000D8
:102FE0008160809380008091910082608093910045
:102FF0008091910081608093910080919000816028
:10300000809390008091C10084608093C100809182
:10301000C10082608093C1008091C1008160809373
:10302000C1008091C30081608093C3008091C00083
:1030300082608093C0008091C20081608093C20052
:1030400080917A00846080937A0080917A00826017
:1030500080937A0080917A00816080937A008091D9
:103060007A00806880937A0084B7877F84BF0FB628
:10307000F894A89580916000886180936000109218
:1030800060000FBE20E030E080E80FB6F894809337
:103090006100209361000FBE8091D8008F7E8093E5
:1030A000D8008091D70081608093D70084E082BFF0
:1030B00081E0809336038091D8008E7F8093D80082
:1030C0001092E2001092DA001092E1008091D80094
:1030D0008F778093D8008091D80080688093D80043
:1030E0008091D8008F7D8093D80019BC1092350351
:1030F0001092340310923303109232038091E00057
:103100008B7F8093E0008091D80081608093D8000D
:1031100042E360E080E00E94E7038091E1008E7F5F
:103120008093E1008091E20081608093E2008091D1
:10313000E20088608093E2008091E0008E7F8093BF
:10314000E0008091D80080618093D8007894E0916D
:103150006003F091610382E08083E0915C03F09171
:103160005D031082E0915E03F0915F038FEC80833A
:1031700010926803E0916403F091650386E0808318
:10318000E0916203F0916303808180618083E0912C
:103190006203F0916303808188608083E091620321
:1031A000F0916303808180688083E0916203F091F5
:1031B000630380818F7D808386E191E00E94A31765
:1031C000EDEFF0E02491EEEDF0E08491882399F0AA
:1031D00090E0880F991FFC01E253FF4FA591B49135
:1031E000FC01E054FF4F859194918FB7F894EC91D6
:1031F000E22BEC938FBFCE018B549F4F0E9485032F
:103200006AE171E0CE018B5D9E4F0E94431260E344
:1032100073E0CE01815E9E4F0E944312CE01019663
:103220000E9485031CAE1BAE1EAE1DAE21961FAEC6
:103230001EAE2197CE0185589F4F0E948503CE0177
:103240008F5B9F4F0E9485036AE171E0CE018B5D29
:103250009E4F0E941111882319F10E94F612C55148
:10326000DF4F688379838A839B83CB5ED04080E580
:1032700093E00E94D80F892B39F3CE0181519F4FE3
:103280000E948017BE0161517F4FCE018B5D9E4F22
:103290000E94B811CE0181519F4F0E94F111E7CFDA
:1032A00062E271E0CE018B5D9E4F0E941111882376
:1032B00009F4E2C144244A94542C62E371E0CE0143
:1032C0008B5D9E4F0E9411118111CBC10E94F6129D
:1032D000C551DF4F688379838A839B83CB5ED0405F
:1032E000C951DF4F088119812A813B81C75ED040D7
:1032F000DC01CB01801B910BA20BB30B8D3B9240E9
:10330000A105B10508F4A5C162E271E0CE018B5DB3
:103310009E4F0E941111882309F437C79AC10E9459
:10332000F612C551DF4F688379838A839B83CB5E16
:10333000D040CE0181519F4F0E948017BE01615144
:103340007F4FCE018B5D9E4F0E94B811CE018151FF
:103350009F4F0E94F11162E371E0CE018B5D9E4FA1
:103360000E94111181117DC762E271E0CE018B5D77
:103370009E4F0E941111811174C723E030E040E09C
:1033800050E0BE016B5D7E4FCE0181519F4F0E9488
:103390005812C151DF4F88819981CF5ED04000978C
:1033A00009F45CC70E94192FB62E8B2C972E24018E
:1033B000CE0181519F4F0E94F111BE016B5D7E4F86
:1033C000CE01895F9E4F0E943A126BE371E0CE01FD
:1033D00081519F4F0E944312BE0161517F4FCE0128
:1033E000895F9E4F0E94DE108C016DE371E0CE017B
:1033F00085509F4F0E944312BE0165507F4FCE0102
:10340000895F9E4F0E94DE10AC014F5F5F4F9801B5
:10341000BE01695F7E4FCE018F5F9E4F0E945812A2
:10342000CE0185509F4F0E94F111CE0181519F4FD7
:103430000E94F1116FE371E0CE018F5F9E4F0E94F9
:1034400011118111E1C667E471E0CE018F5F9E4FDB
:103450000E9411118111DAC66FE471E0CE018F5F15
:103460009E4F0E9411118111D3C667E571E0CE0114
:103470008F5F9E4F0E9411118111CCC660E671E0F2
:10348000CE018F5F9E4F0E9411118111C5C66FE55D
:1034900071E0CE018F5F9E4F0E9411118111BEC657
:1034A00069E671E0CE018F5F9E4F0E94111181117C
:1034B000B7C668E671E0CE018F5F9E4F0E94111182
:1034C0008111B0C661E771E0CE018F5F9E4F0E940F
:1034D00011118111A9C66FE771E0CE018F5F9E4F78
:1034E0000E9411118111A2C66AE871E0CE018F5FBE
:1034F0009E4F0E94111181119BC665E971E0CE01BA
:103500008F5F9E4F0E941111811194C661EA71E094
:10351000CE018F5F9E4F0E94111181118DC669EA05
:1035200071E0CE018F5F9E4F0E941111811186C6FE
:103530006FEA71E0CE018F5F9E4F0E9411118111E1
:103540007FC667EB71E0CE018F5F9E4F0E94111125
:10355000811178C660EC71E0CE018F5F9E4F0E94B2
:103560001111811171C668EC71E0CE018F5F9E4F21
:103570000E94111181116AC66EEC71E0CE018F5F5D
:103580009E4F0E941111811163C666ED71E0CE015C
:103590008F5F9E4F0E94111181115CC66FED71E02B
:1035A000CE018F5F9E4F0E941111811155C61AE501
:1035B000CE018F5F9E4F0E94F1113401660C771C83
:1035C000680C791C612FC3010E94410FCE01895FF5
:1035D0009E4F0E94F111BE016B5D7E4FCE01815165
:1035E0009F4F0E943A12BE0161517F4FCE018B5412
:1035F0009F4F0E947701692FC30101960E94410FDE
:10360000CE0181519F4F0E94F111BE016B5D7E4F33
:10361000CE0181519F4F0E943A12BE0161517F4FEE
:10362000CE018B549F4F0E947701682FC3010296F1
:103630000E94410FCE0181519F4F0E94F111692DCF
:1036400081E090E00E94410F6B2D82E090E00E94AB
:10365000410F80E593E00E94D80F892B09F05FCEDF
:103660002CCE652D81E090E00E94410F642D82E018
:1036700090E00E94410F2CC465EF71E0CE018B5D9C
:103680009E4F0E941111882309F4B6C065EF71E0C6
:10369000CE018B5D9E4F0E941111882309F444C016
:1036A0000E94F612C551DF4F688379838A839B831A
:1036B000CB5ED040C951DF4F088119812A813B81FF
:1036C000C75ED040DC01CB01801B910BA20BB30B7A
:1036D0008D3B9240A105B10570F087EE91E00E940C
:1036E000A3170E94F612C951DF4F688379838A833A
:1036F0009B83C75ED04080E593E00E94D80F892B62
:1037000029F2CE0181519F4F0E948017BE01615165
:103710007F4FCE018B5D9E4F0E94B811CE0181512B
:103720009F4F0E94F111E7CF812C912C60E0C401E2
:103730000E94410F5FEF851A950A811484E0980674
:10374000A9F76AE171E0CE018B5D9E4F0E948A115C
:103750000E94F612C551DF4F688379838A839B8369
:10376000CB5ED0406AE171E0CE018B5D9E4F0E943E
:103770001111882309F4ACC3C551DF4F88819981A9
:10378000AA81BB81CB5ED040C951DF4F48815981AE
:103790006A817B81C75ED040841B950BA60BB70B5B
:1037A0008D3B9240A105B10570F08BEF91E00E9436
:1037B000A3170E94F612C951DF4F688379838A8369
:1037C0009B83C75ED04080E593E00E94D80F892B91
:1037D00049F2CE0181519F4F0E948017BE01615175
:1037E0007F4FCE018B5D9E4F0E94B811CE0181515B
:1037F0009F4F0E94F111E7CF69E072E0CE018B5D2F
:103800009E4F0E941111882309F44BC282E090E080
:103810000E94430F182F81E090E00E94430F212F58
:1038200030E0A901582BC55DDE4F59834883CB5248
:10383000D14061E172E0CE01875E9E4F0E9443124B
:103840006FE172E0CE018D5E9E4F0E94431264E2F2
:1038500072E0CE01835F9E4F0E944312A3E06A2E66
:10386000712C88248394912CC55DDE4F88819981C9
:10387000CB52D140881599050CF403C2C3010E94B4
:10388000430FB82EC30102960E94430F282EC30196
:1038900001960E94430F312C382A032C000C440857
:1038A00055086B2DCE0181519F4F0E942212CE01EF
:1038B00081519F4F0E94B715682FCE01875E9E4FA2
:1038C0000E94F8108C01CE0181519F4F0E94F1118E
:1038D0006B2DCE0181519F4F0F3F1F4F09F478C0D0
:1038E0000E942212CE0181519F4F0E94B715182FBE
:1038F000CE0181519F4F0E94F1111E3451F4B2014B
:10390000A101CE018B549F4F0E94450F8111F7CF2B
:1039100014C06B2DCE018B549F4F0E94D201E12C1D
:10392000F12C8701E394A2019101BC01CE018B54DB
:103930009F4F0E949F088111ECCF6B2DCE018B54BD
:103940009F4F0E94D2014AE0BC01CE0181519F4F9E
:103950000E94F6116B2DCE0185509F4F0E942212BE
:103960004AE0B401CE01895F9E4F0E94F611BE016C
:10397000695F7E4FCE018F5F9E4F0E943A126DE3CA
:1039800071E0CE018F5F9E4F0E945E11BE016550B7
:103990007F4F0E9477116DE371E00E945E11BE01BE
:1039A00061517F4F0E94771169E272E00E945E11BF
:1039B0000E943016CE018F5F9E4F0E94F111CE0102
:1039C000895F9E4F0E94F111CE0185509F4F4BC1E0
:1039D0000E942212CE0181519F4F0E94B715682F7D
:1039E000CE018D5E9E4F0E94F8108C01CE01815158
:1039F0009F4F0E94F1116B2D0F3F1F4F09F473C0B1
:103A0000CE0181519F4F0E942212CE0181519F4FC2
:103A10000E94B7158136A9F06B2DCE0185509F4FBE
:103A20000E942212CE0185509F4F0E94B71511E0CF
:103A3000843609F010E0CE0185509F4F0E94F111AD
:103A400001C011E0CE0181519F4F0E94F11111235D
:103A5000D9F06B2DCE018B549F4F0E94D201C954D7
:103A6000DF4F68817981C75BD040C12CD12C7601B2
:103A7000C39492018101AC01CE018B549F4F0E94EF
:103A8000C1078111E6CFF6C0C954DF4F4881598183
:103A9000C75BD0406B2DCE018B549F4FC35DDE4F73
:103AA0004883CD52D140C25DDE4F5883CE52D140C3
:103AB0000E94D201C12CD12C7601C39492018101C4
:103AC000C35DDE4F4881CD52D140C25DDE4F58818B
:103AD000CE52D140BC01CE018B549F4F0E94C107F2
:103AE0008111D2CFC7C0CE0181519F4F0E942212B7
:103AF000CE0181519F4F0E94B715682FCE01835F81
:103B00009E4F0E94F8108C01CE0181519F4F0E9460
:103B1000F1116B2D0F3F1F4F09F473C0CE0181517E
:103B20009F4F0E942212CE0181519F4F0E94B715D4
:103B30008536A9F06B2DCE0185509F4F0E94221231
:103B4000CE0185509F4F0E94B71511E0883609F0CD
:103B500010E0CE0185509F4F0E94F11101C011E08D
:103B6000CE0181519F4F0E94F1111123D9F06B2D8D
:103B7000CE018B549F4F0E94D201C954DF4F688100
:103B80007981C75BD040C12CD12C7601C3949201BE
:103B90008101AC01CE018B549F4F0E9430088111EE
:103BA000E6CF68C0C954DF4F48815981C75BD04018
:103BB0006B2DCE018B549F4FC35DDE4F4883CD529A
:103BC000D140C25DDE4F5883CE52D1400E94D20117
:103BD000C12CD12C7601C39492018101C35DDE4FCB
:103BE0004881CD52D140C25DDE4F5881CE52D14086
:103BF000BC01CE018B549F4F0E9430088111D2CF5F
:103C000039C0CE0181519F4F0E9422124AE0B40177
:103C1000CE018F5F9E4F0E94F611BE016F5F7E4FF7
:103C2000CE0185509F4F0E943A126DE371E0CE01A4
:103C300085509F4F0E945E11BE0161517F4F0E94CF
:103C400077116DE371E00E945E1165E372E00E94FE
:103C50005E110E943016CE0185509F4F0E94F111D7
:103C6000CE018F5F9E4F0E94F111CE0181519F4F77
:103C70000E94F1112FEF821A920A43E0640E711C28
:103C8000F3CDCE01835F9E4F0E94F111CE018D5E78
:103C90009E4F0E94F111CE01875E9E4F0E94F1114E
:103CA000B5CD62E472E0CE018B5D9E4F0E94111192
:103CB000882309F415C162E472E0CE018B5D9E4F4A
:103CC0000E941111882309F444C00E94F612C551C4
:103CD000DF4F688379838A839B83CB5ED040C95151
:103CE000DF4F088119812A813B81C75ED040DC010A
:103CF000CB01801B910BA20BB30B8D3B9240A10516
:103D0000B10570F089E492E00E94A3170E94F612B8
:103D1000C951DF4F688379838A839B83C75ED04014
:103D200080E593E00E94D80F892B29F2CE018151C2
:103D30009F4F0E948017BE0161517F4FCE018B5D66
:103D40009E4F0E94B811CE0181519F4F0E94F111E8
:103D5000E7CF82E090E00E94430F882E81E090E060
:103D60000E94430F912C982AB401CE0181519F4F9C
:103D70000E94ED316DE272E0CE0181519F4F0E94B1
:103D8000ED316AE171E0CE018B5D9E4F0E948A1198
:103D90006AE572E0CE018B5D9E4F0E941111811188
:103DA00097C00E94F612C551DF4F688379838A83DA
:103DB0009B83CB5ED040C951DF4F088119812A8196
:103DC0003B81C75ED040DC01CB01801B910BA20B75
:103DD000B30B8D3B9240A105B10508F45FC04AE0EA
:103DE000B4015AE08516910444F4CE0185509F4FEA
:103DF0000E94F61167E572E00BC084E68816910414
:103E00001CF5CE0185509F4F0E94F61168E572E0C7
:103E1000CE018F5F9E4F0E944312BE0165507F4FBF
:103E2000CE018F5F9E4F0E9477116BE272E00E947D
:103E30005E110E943016CE018F5F9E4F0E94F111DD
:103E4000CE0185509F4F1EC0CE018F5F9E4F0E94B6
:103E5000F611BE016F5F7E4FCE0185509F4F0E94CD
:103E60003A126BE272E0CE0185509F4F0E945E11C4
:103E70000E943016CE0185509F4F0E94F111CE0155
:103E80008F5F9E4F0E94F1110E94F612C951DF4FC1
:103E9000688379838A839B83C75ED04080E593E003
:103EA0000E94D80F892B09F473CFCE0185509F4F04
:103EB0000E948017BE0165507F4FCE018B5D9E4FE3
:103EC0000E94B811CE0185509F4F0E94F111E6CF9C
:103ED0006AE171E0CE018B5D9E4F0E948A1148C15C
:103EE00067E672E0CE018B5D9E4F0E941111882320
:103EF00009F44EC06B8D7C8D16E9E12EF12C00E0AB
:103F000010E026E930E040E050E0CE0101960E944A
:103F10009F088111EFCF9FE0892E912C698D7A8DBA
:103F200016E9E12EF12C00E010E026E930E040E057
:103F300050E0CE0101960E949F088111EFCF91E0E1
:103F4000891A910859F78BAD9CAD499754F4CE016D
:103F500001960E9425098BAD9CAD01969CAF8BAF5D
:103F6000C9CF8DAD9EAD0C9754F4CE0101960E9441
:103F7000E2148DAD9EAD01969EAF8DAF06C0CE0111
:103F800001960E9422141EAE1DAE1CAE1BAEB2CF17
:103F900063E772E0CE018B5D9E4F0E941111882372
:103FA00009F462C014E1812E912CCD56DF4F688157
:103FB0007981C359D04012E3E12EF12C00E010E0EA
:103FC00024E630E040E050E0CE0185589F4F0E944B
:103FD0009F088111EACF21E0821A910831F761E050
:103FE00070E0CE0185589F4F0E946F0DA4E18A2E8C
:103FF000912CCD56DF4F68817981C359D04014E6AA
:10400000E12EF12C00E010E024E630E040E050E04A
:10401000CE0185589F4F0E949F088111EACF41E051
:10402000841A910831F705E010E0CE0185589F4FC2
:104030000E946D0E01501109C1F705E010E0CE019C
:1040400085589F4F0E94FB0C01501109C1F762E097
:1040500070E0CE0185589F4F0E946F0DCE018558AC
:104060009F4F0E946D0E9ECF6EE772E0CE018B5D7A
:104070009E4F0E941111882381F06B8D7C8D16E973
:10408000E12EF12C00E010E026E930E040E050E0C5
:10409000CE0101960E949F08F0CF6DE872E0CE013C
:1040A0008B5D9E4F0E9411118111FAC067E972E089
:1040B000CE018B5D9E4F0E9411118111F1C061EA0A
:1040C00072E0CE018B5D9E4F0E9411118111E8C0FC
:1040D0006BEA72E0CE018B5D9E4F0E94111181113F
:1040E000DFC0EDC069EC72E0CE018B5D9E4F0E9497
:1040F000111181111BC666ED72E0CE018B5D9E4FE2
:104100000E941111811161C6C75DDE4F288139817E
:10411000C952D14041EE52E0BE016B5D7E4FCE01EF
:1041200081519F4F0E9458126FEF7FEFCE01815156
:104130009F4F0E941111182FCE0181519F4F0E9455
:10414000F111112309F4C5C667EE72E0CE018B5D53
:104150009E4F0E94111181110C947A2C63EF72E032
:10416000CE018B5D9E4F0E94111181110C94802C09
:10417000CE01815E9E4F0E94F111CE018B5D9E4F5C
:104180000E94F1110E94781036C89FEF4916590617
:1041900081F123E030E040E050E0BE016B5D7E4FF6
:1041A000CE0185509F4F0E945812BE0165507F4F2F
:1041B000CE0181519F4F0E943A1268E271E0CE0118
:1041C00081519F4F0E945E11BC01CE01815E9E4FC6
:1041D0000E94A111CE0181519F4F0E94F111CE0189
:1041E00085509F4F0E94F111CE01815E9E4F0E942B
:1041F00030160E94F612C951DF4F688379838A8393
:104200009B83C75ED04059C811E4D2C912E4D0C91B
:1042100018E5CEC919E5CCC912E5CAC913E5C8C964
:104220001CE4C6C91DE4C4C913E4C2C918E4C0C96A
:1042300010E5BEC91FE4BCC91EE4BAC911E6B8C97D
:1042400012E6B6C913E6B4C914E6B2C915E6B0C998
:1042500016E6AEC917E6ACC918E6AAC9B12C70E0DB
:10426000A4C8C551DF4F88819981AA81BB81CB5EEB
:10427000D040C951DF4F488159816A817B81C75E37
:10428000D040841B950BA60BB70B8D3B9240A1052C
:10429000B10508F4DEC987EE91E00E94A317D9C9E1
:1042A000BE016B5D7E4FCE0181519F4F0E943A123D
:1042B000BE0161517F4FCE0101960E94491661E017
:1042C00073E0CE018B5D9E4F0E941111882309F48B
:1042D00056C066E0862E912C6B8D7C8D18EEE12EFB
:1042E00013E0F12E00E010E026E930E040E050E07D
:1042F000CE0101960E949F088111EECF51E0851AF0
:10430000910851F749E1842E912C698D7A8D16E937
:10431000E12EF12C00E010E026E930E040E050E032
:10432000CE0101960E949F088111EFCF81E0881A8B
:10433000910859F78BAD9CAD499754F4CE01019685
:104340000E9425098BAD9CAD01969CAF8BAFC1CF70
:104350008DAD9EAD0C9754F4CE0101960E94E214EF
:104360008DAD9EAD01969EAF8DAF06C0CE0101967C
:104370000E9422141EAE1DAE1CAE1BAEAACF65EB72
:1043800072E0CE018B5D9E4F0E941111882309F4CB
:10439000AFC0698D7A8D16E9E12EF12C00E010E0B6
:1043A00026E930E040E050E0CE0101960E949F08EF
:1043B0008111EFCF698D7A8D16E9E12EF12C00E0A5
:1043C00010E026E930E040E050E0CE0101960E9486
:1043D0009F088111EFCF6B8D7C8D18EEE12E13E0DD
:1043E000F12E00E010E026E930E040E050E0CE01A0
:1043F00001960E949F088111EECF6B8D7C8D18EE87
:10440000E12E13E0F12E00E010E026E930E040E07C
:1044100050E0CE0101960E949F088111EECF4985A0
:104420005A856B817C81A8ECCA2ED12CE12CF12C11
:1044300004E610E020E030E0CE0101960E94300852
:104440008111EDCFF8E08F2E912C6B8D7C8D14EFC8
:10445000E12EFF24F39400E010E026E930E040E094
:1044600050E0CE0101960E949F088111EECF91E0AD
:10447000891A910851F763E2862E912C698D7A8D05
:1044800016E9E12EF12C00E010E026E930E040E0F2
:1044900050E0CE0101960E949F088111EFCF21E0EC
:1044A000821A910859F78BAD9CAD499754F4CE010F
:1044B00001960E9425098BAD9CAD01969CAF8BAFF8
:1044C00068CF8DAD9EAD0C9754F4CE0101960E943D
:1044D000E2148DAD9EAD01969EAF8DAF06C0CE01AC
:1044E00001960E9422141EAE1DAE1CAE1BAE51CF13
:1044F0006FEB72E0CE0181519F4F0E944312BE01CB
:1045000061517F4FCE018B5D9E4F0E94DE108C016A
:10451000CE0181519F4F0E94F1110F3F1F4F09F4AF
:104520005CC0C75DDE4F08811981C952D1406FEB75
:1045300072E0CE0185509F4F0E944312BE0165502C
:104540007F4FCE018B5D9E4F0E94DE10AC014F5F0E
:104550005F4F9801BE016B5D7E4FCE0181519F4F31
:104560000E9458126FEB72E0CE01895F9E4F0E944D
:104570004312BE01695F7E4FCE018B5D9E4F0E944C
:10458000DE109C012150310940E050E0BE016B5D1E
:104590007E4FCE018F5F9E4F0E945812AE01415157
:1045A0005F4FBE016F5F7E4FCE0101960E94A3094F
:1045B000CE018F5F9E4F0E94F111CE01895F9E4F09
:1045C0000E94F111CE0181519F4F0E94F111CE0145
:1045D00085509F4F0E94F111A4CF61EC72E0CE0193
:1045E0008B5D9E4F0E941111882309F47BCD45E01D
:1045F000842E912C698D7A8D16E9E12EF12C00E044
:1046000010E026E930E040E050E0CE0101960E9443
:104610009F088111EFCF51E0851A910859F74F811A
:1046200058856B817C8128ECC22ED12CE12CF12C99
:104630000CE211E020E030E0CE0101960E9430084B
:104640008111EDCF6B8D7C8D18EEE12E13E0F12EF4
:1046500000E010E026E930E040E050E0CE010196B5
:104660000E949F088111EECF6B8D7C8D18EEE12E9C
:1046700013E0F12E00E010E026E930E040E050E0E9
:10468000CE0101960E949F088111EECF49855A857F
:104690006B817C81B8ECCB2ED12CE12CF12C04E683
:1046A00010E020E030E0CE0101960E943008811138
:1046B000EDCF49855A856B817C81A8ECCA2ED12C1F
:1046C000E12CF12C04E610E020E030E0CE01019670
:1046D0000E9430088111EDCF6B8D7C8D14ECE12EA2
:1046E00019E0F12E00E010E026E930E040E050E073
:1046F000CE0101960E949F088111EECF6B8D7C8DBB
:1047000010E9E12EFF24F39400E010E026E930E008
:1047100040E050E0CE0101960E949F088111EECF4B
:104720006B8D7C8D10E9E12EFF24F39400E010E006
:1047300026E930E040E050E0CE0101960E949F085B
:104740008111EECF6B8D7C8D10E2E12E13E0F12E06
:1047500000E010E026E930E040E050E0CE010196B4
:104760000E949F088111EECF6B8D7C8D10E2E12EAF
:1047700013E0F12E00E010E026E930E040E050E0E8
:10478000CE0101960E949F088111EECF6B8D7C8D2A
:1047900010E2E12E13E0F12E00E010E026E930E017
:1047A00040E050E0CE0101960E949F088111EECFBB
:1047B0006B8D7C8D10E2E12E13E0F12E00E010E015
:1047C00026E930E040E050E0CE0101960E949F08CB
:1047D0008111EECF6F89788D14E6E12EF12C00E087
:1047E00010E026E930E040E050E0CE0101960E9462
:1047F0009F088111EFCF14E0812E912C6B8D7C8D61
:1048000014E6E12EF12C00E010E026E930E040E073
:1048100050E0CE0101960E949F088111EFCF4B819D
:104820005C816B857C85A4E6CA2ED12CE12CF12C11
:1048300006E910E020E030E0CE0101960E94300849
:104840008111EDCF81E0881A9108C1F64B815C811E
:104850006D857E85F4E6CF2ED12CE12CF12C06E976
:1048600010E020E030E0CE0101960E943008811176
:10487000EDCF49855A856B817C81E4E6CE2ED12C23
:10488000E12CF12C06E910E020E030E0CE010196A9
:104890000E9430088111EDCF34E0832E912C6B8D76
:1048A0007C8D14E6E12EF12C00E010E026E930E0EA
:1048B00040E050E0CE0101960E949F088111EFCFA9
:1048C0004B815C816D857E8594E6C92ED12CE12CCF
:1048D000F12C06E910E020E030E0CE0101960E94C4
:1048E00030088111EDCF91E0891A9108C1F6698DE8
:1048F0007A8D10E9E12EFF24F39400E010E026E920
:1049000030E040E050E0CE0101960E949F08811106
:10491000EECF6B8D7C8D10EBE12E14E0F12E00E0DC
:1049200010E026E930E040E050E0CE0101960E9420
:104930009F088111EECF6D8D7E8D14ECE12E19E074
:10494000F12E00E010E022E030E040E050E0CE0147
:1049500001960E949F088111EECF6B8D7C8D10EB2C
:10496000E12E14E0F12E00E010E026E930E040E016
:1049700050E0CE0101960E949F088111EECF49853B
:104980005A856B817C81E4E6CE2ED12CE12CF12C72
:1049900006E910E020E030E0CE0101960E943008E8
:1049A0008111EDCF6B8D7C8D10E7E12E17E1F12E9B
:1049B00000E010E026E930E040E050E0CE01019652
:1049C0000E949F088111EECF6B8D7C8D18E8E12E3F
:1049D00013E1F12E00E010E026E930E040E050E085
:1049E000CE0101960E949F088111EECF8BAD9CAD48
:1049F000499754F4CE0101960E9425098BAD9CADD8
:104A000001969CAF8BAF16C08DAD9EAD0C9754F444
:104A1000CE0101960E94E2148DAD9EAD01969EAF2F
:104A20008DAF06C0CE0101960E9422141EAE1DAEAF
:104A30001CAE1BAE6B8D7C8D1CE2E12EFF24F3942B
:104A400000E010E026E930E040E050E0CE010196C1
:104A50000E949F088111EECF6B8D7C8D18E8E12EAE
:104A600013E1F12E00E010E026E930E040E050E0F4
:104A7000CE0101960E949F088111EECF93E2892E0C
:104A8000912C698D7A8D1CE2E12EFF24F39400E0D5
:104A900010E026E930E040E050E0CE0101960E94AF
:104AA0009F088111EECF21E0821A910851F76B8D9A
:104AB0007C8D18EEE12E13E0F12E00E010E026E9E7
:104AC00030E040E050E0CE0101960E949F08811145
:104AD000EECF6B8D7C8D18EEE12E13E0F12E00E011
:104AE00010E026E930E040E050E0CE0101960E945F
:104AF0009F088111EECF49855A856B817C81F8EC46
:104B0000CF2ED12CE12CF12C04E610E020E030E097
:104B1000CE0101960E9430088111EDCF49855A855A
:104B20006B817C81E8ECCE2ED12CE12CF12C04E6BB
:104B300010E020E030E0CE0101960E9430088111A3
:104B4000EDCF6B8D7C8D14ECE12E19E0F12E00E0A1
:104B500010E026E930E040E050E0CE0101960E94EE
:104B60009F088111EECF6B8D7C8D10E9E12EFF2423
:104B7000F39400E010E026E930E040E050E0CE01A0
:104B800001960E949F088111EECF6B8D7C8D10E9FC
:104B9000E12EFF24F39400E010E026E930E040E04D
:104BA00050E0CE0101960E949F088111EECFCACD40
:104BB0004F8158856B817C8106E9C02ED12CE12C78
:104BC000F12C08EC10E020E030E0CE0101960E94CC
:104BD00030088111EDCF4F8158856B817C8118ECB5
:104BE000C12ED12CE12CF12C00EA1FE020E030E0B6
:104BF000CE0101960E9430088111EDCFB4E08B2EDA
:104C0000912C4F8158856B817C81A8ECCA2ED12CC8
:104C1000E12CF12C0CE211E020E030E0CE01019615
:104C20000E9430088111EDCF41E0841A910849F7C4
:104C30006B8D7C8D16E9E12EF12C00E010E026E969
:104C400030E040E050E0CE0101960E949F088111C3
:104C5000EFCF6B8D7C8D16E9E12EF12C00E010E09A
:104C600026E930E040E050E0CE0101960E949F0826
:104C70008111EFCF698D7A8D16E9E12EF12C00E0DC
:104C800010E026E930E040E050E0CE0101960E94BD
:104C90009F088111EFCF698D7A8D16E9E12EF12CF5
:104CA00000E010E026E930E040E050E0CE0101965F
:104CB0000E949F088111EFCF698D7A8D16E9E12E50
:104CC000F12C00E010E026E930E040E050E0CE01B9
:104CD00001960E949F088111EFCF24E6822E912C2D
:104CE0006B8D7C8D16E9E12EF12C00E010E026E9B9
:104CF00030E040E050E0CE0101960E949F08811113
:104D0000EFCF6B8D7C8D16E9E12EF12C00E010E0E9
:104D100026E930E040E050E0CE0101960E949F0875
:104D20008111EFCF51E0851A9108D1F64F81588556
:104D30006B817C8186E9C82ED12CE12CF12C08EC0A
:104D400010E020E030E0CE0101960E943008811191
:104D5000EDCF2ECF6B8D7C8D10EBE12E14E0F12E7C
:104D600000E010E026E930E040E050E0CE0101969E
:104D70000E949F088111EECF81E0881A910851F7B7
:104D8000ADE08A2E912C698D7A8D16E9E12EF12CF9
:104D900000E010E026E930E040E050E0CE0101966E
:104DA0000E949F088111EFCF91E0891A910859F76D
:104DB0008BAD9CAD49976CF4CE0101960E942509FC
:104DC0008BAD9CAD01969CAF8BAF16E0812E912CE4
:104DD000C1CF8DAD9EAD0C9754F4CE0101960E94CB
:104DE000E2148DAD9EAD01969EAF8DAF06C0CE0193
:104DF00001960E9422141EAE1DAE1CAE1BAEE5CF66
:104E000060E070E0CB014B0148EE53E060E070E001
:104E1000CE0185589F4F0E94450FCE0185589F4F68
:104E20000E94BA2C61E070E0CE0185589F4F0E942D
:104E3000F02CEF964EAD5FADEF97C957DF4F68810D
:104E40007981C758D040E4EFCE2EDD24D394E12CF5
:104E5000F12C00E213E020E030E0CE0185589F4FB6
:104E60000E9430088111E5CF81142AE0920609F0F2
:104E700058C06CE270E0CE0185589F4F0E94152EFD
:104E8000CD57DF4F48815981C358D040EF966EAD62
:104E90007FADEF9734E6C32ED12CE12CF12C08EE38
:104EA00013E020E030E0CE0185589F4F0E9430088B
:104EB0008111E6CFCE0185589F4F0E94FB0CCE0199
:104EC00081519F4F0E94F111CE0185509F4F0E944A
:104ED000F1116DE371E0CE0185509F4F0E944312A6
:104EE000BE0165507F4FCE018B5D9E4F0E94DE104C
:104EF0009C012150310940E050E0BE016B5D7E4FC6
:104F0000CE0181519F4F0E945812C151DF4F8881BD
:104F10009981CF5ED040009709F472CF0E94192F7B
:104F200072CF81144FE0940611F563E470E0CE0176
:104F300085589F4F0E94152ECD57DF4F48815981CC
:104F4000C358D040EF966EAD7FADEF9724E6C22EEA
:104F5000D12CE12CF12C08EE13E020E030E0CE0162
:104F600085589F4F0E9430088111E6CFA3CF81144E
:104F700054E1950641F0811489E1980609F0A7C033
:104F80006AE370E002C06CE270E0CE0185589F4F8A
:104F90000E94152ECE0185589F4F0E94BA2C62E0C8
:104FA00070E0CE0185589F4F0E94F02CEF964EADD9
:104FB0005FADEF97C957DF4F68817981C758D040FF
:104FC00094EFC92EDD24D394E12CF12C00E213E000
:104FD00020E030E0CE0185589F4F0E9430088111BB
:104FE000E5CF811494E1990619F463E270E002C000
:104FF00060E370E0CE0185589F4F0E94152ECD577B
:10500000DF4F48815981C358D040EF966EAD7FADD8
:10501000EF9784E6C82ED12CE12CF12C08EE13E09A
:1050200020E030E0CE0185589F4F0E94300881116A
:10503000E6CFCE0185589F4F0E94FB0CCE018558CC
:105040009F4F0E94BA2CEF964EAD5FADEF97C957B8
:10505000DF4F68817981C758D04004EFC02EDD242E
:10506000D394E12CF12C00E213E020E030E0CE01FB
:1050700085589F4F0E9430088111E5CF811424E1AB
:10508000920619F462E370E002C064E470E0CE01BD
:1050900085589F4F0E94152ECD57DF4F488159816B
:1050A000C358D040EF966EAD7FADEF9714E6C12E9A
:1050B000D12CE12CF12C08EE13E020E030E0CE0101
:1050C00085589F4F0E9430088111E6CFF3CE81149E
:1050D0004EE1940609F024C16CE270E0CE018558DF
:1050E0009F4F0E94152ECE0185589F4F0E94BA2CCB
:1050F00062E070E0CE0185589F4F0E94F02CEF9641
:105100004EAD5FADEF97C957DF4F68817981C758C2
:10511000D040B4EFCB2EDD24D394E12CF12C00E26F
:1051200013E020E030E0CE0185589F4F0E94300808
:105130008111E5CF6CE270E0CE0185589F4F0E944F
:10514000152ECD57DF4F48815981C358D040EF9677
:105150006EAD7FADEF97A4E6CA2ED12CE12CF12CD9
:1051600008EE13E020E030E0CE0185589F4F0E940A
:1051700030088111E6CFCE0185589F4F0E94BA2C8E
:1051800063E070E0CE0185589F4F0E94F02CEF96AF
:105190004EAD5FADEF97C957DF4F68817981C75832
:1051A000D040F4EFCF2EDD24D394E12CF12C00E29B
:1051B00013E020E030E0CE0185589F4F0E94300878
:1051C0008111E5CF6AE270E0CE0185589F4F0E94C1
:1051D000152ECD57DF4F48815981C358D040EF96E7
:1051E0006EAD7FADEF97E4E6CE2ED12CE12CF12C05
:1051F00008EE13E020E030E0CE0185589F4F0E947A
:1052000030088111E6CFCE0185589F4F0E94FB0CDC
:10521000CE0185589F4F0E94BA2CEF964EAD5FADE0
:10522000EF97C957DF4F68817981C758D04034EF75
:10523000C32EDD24D394E12CF12C00E213E020E016
:1052400030E0CE0185589F4F0E9430088111E5CF94
:105250006CE270E0CE0185589F4F0E94152ECD570D
:10526000DF4F48815981C358D040EF966EAD7FAD76
:10527000EF9724E6C22ED12CE12CF12C08EE13E09E
:1052800020E030E0CE0185589F4F0E943008811108
:10529000E6CFCE0185589F4F0E94FB0CCE0185586A
:1052A0009F4F0E94BA2CEF964EAD5FADEF97C95756
:1052B000DF4F68817981C758D04094EFC92EDD2433
:1052C000D394E12CF12C00E213E020E030E0CE0199
:1052D00085589F4F0E9430088111E5CF62E370E04E
:1052E000CE0185589F4F0E94152ECD57DF4F488124
:1052F0005981C358D040EF966EAD7FADEF9784E6ED
:10530000C82ED12CE12CF12C08EE13E020E030E087
:10531000CE0185589F4F0E9430088111E6CFCACD3B
:10532000811453E2950609F02EC16CE270E0CE01C3
:1053300085589F4F0E94152ECE0185589F4F0E9481
:10534000BA2C62E070E0CE0185589F4F0E94F02C8D
:10535000EF964EAD5FADEF97C957DF4F688179810A
:10536000C758D04004EFC02EDD24D394E12CF12C9B
:1053700000E213E020E030E0CE0185589F4F0E940C
:1053800030088111E5CF6CE270E0CE0185589F4F67
:105390000E94152ECD57DF4F48815981C358D04008
:1053A000EF966EAD7FADEF9714E6C12ED12CE12CB8
:1053B000F12C08EE13E020E030E0CE0185589F4F3D
:1053C0000E9430088111E6CFCE0185589F4F0E9480
:1053D000BA2C63E070E0CE0185589F4F0E94F02CFC
:1053E000EF964EAD5FADEF97C957DF4F688179817A
:1053F000C758D040B4EFCB2EDD24D394E12CF12C50
:1054000000E213E020E030E0CE0185589F4F0E947B
:1054100030088111E5CF62E370E0CE0185589F4FDF
:105420000E94152ECD57DF4F48815981C358D04077
:10543000EF966EAD7FADEF97A4E6CA2ED12CE12C8E
:10544000F12C08EE13E020E030E0CE0185589F4FAC
:105450000E9430088111E6CFCE0185589F4F0E94EF
:10546000FB0CCE0185589F4F0E94BA2CEF964EAD93
:105470005FADEF97C957DF4F68817981C758D0403A
:10548000F4EFCF2EDD24D394E12CF12C00E213E0D5
:1054900020E030E0CE0185589F4F0E9430088111F6
:1054A000E5CF64E370E0CE0185589F4F0E94152E32
:1054B000CD57DF4F48815981C358D040EF966EAD2C
:1054C0007FADEF97E4E6CE2ED12CE12CF12C08EE47
:1054D00013E020E030E0CE0185589F4F0E94300855
:1054E0008111E6CFCE0185589F4F0E94FB0CCE0163
:1054F00085589F4F0E94BA2CEF964EAD5FADEF9747
:10550000C957DF4F68817981C758D04034EFC32E27
:10551000DD24D394E12CF12C00E213E020E030E014
:10552000CE0185589F4F0E9430088111E5CF60E37E
:1055300070E0CE0185589F4F0E94152ECD57DF4F4A
:1055400048815981C358D040EF966EAD7FADEF973B
:1055500024E6C22ED12CE12CF12C08EE13E020E041
:1055600030E0CE0185589F4F0E9430088111E6CF70
:10557000CE0185589F4F0E94FB0CCE0185589F4F4E
:105580000E94BA2C9CCC811488E2980609F097CC32
:105590006CE270E0CE0185589F4F0E94152ECE011F
:1055A00085589F4F0E94BA2C62E070E0CE0185586A
:1055B0009F4F0E94F02CEF964EAD5FADEF97C9570D
:1055C000DF4F68817981C758D04094EFC92EDD2420
:1055D000D394E12CF12C00E213E020E030E0CE0186
:1055E00085589F4F0E9430088111E5CF6CE270E032
:1055F000CE0185589F4F0E94152ECD57DF4F488111
:105600005981C358D040EF966EAD7FADEF9784E6D9
:10561000C82ED12CE12CF12C08EE13E020E030E074
:10562000CE0185589F4F0E9430088111E6CFCE01F0
:1056300085589F4F0E94BA2C63E070E0CE018558D8
:105640009F4F0E94F02CEF964EAD5FADEF97C9577C
:10565000DF4F68817981C758D04004EFC02EDD2428
:10566000D394E12CF12C00E213E020E030E0CE01F5
:1056700085589F4F0E9430088111E5CF6CE270E0A1
:10568000CE0185589F4F0E94152ECD57DF4F488180
:105690005981C358D040EF966EAD7FADEF9714E6B9
:1056A000C12ED12CE12CF12C08EE13E020E030E0EB
:1056B000CE0185589F4F0E9430088111E6CFCE0160
:1056C00085589F4F0E94BA2C64E070E0CE01855847
:1056D0009F4F0E94F02CEF964EAD5FADEF97C957EC
:1056E000DF4F68817981C758D040B4EFCB2EDD24DD
:1056F000D394E12CF12C00E213E020E030E0CE0165
:1057000085589F4F0E9430088111E5CF6EE170E00F
:10571000CE0185589F4F0E94152ECD57DF4F4881EF
:105720005981C358D040EF966EAD7FADEF97A4E698
:10573000CA2ED12CE12CF12C08EE13E020E030E051
:10574000CE0185589F4F0E9430088111E6CFCE01CF
:1057500085589F4F0E94FB0CCE0185589F4F0E9499
:10576000BA2CEF964EAD5FADEF97C957DF4F68810A
:105770007981C758D040F4EFCF2EDD24D394E12CAB
:10578000F12C00E213E020E030E0CE0185589F4F7D
:105790000E9430088111E5CF64E370E0CE018558A6
:1057A0009F4F0E94152ECD57DF4F48815981C35816
:1057B000D040EF966EAD7FADEF97E4E6CE2ED12CC4
:1057C000E12CF12C08EE13E020E030E0CE0185580A
:1057D0009F4F0E9430088111E6CFCE0185589F4F20
:1057E0000E94FB0CCE0185589F4F0E94BA2CEF9669
:1057F0004EAD5FADEF97C957DF4F68817981C758CC
:10580000D04034EFC32EDD24D394E12CF12C00E200
:1058100013E020E030E0CE0185589F4F0E94300811
:105820008111E5CF60E370E0CE0185589F4F0E9463
:10583000152ECD57DF4F48815981C358D040EF9680
:105840006EAD7FADEF9724E6C22ED12CE12CF12C6A
:1058500008EE13E020E030E0CE0185589F4F0E9413
:1058600030088111E6CFCE0185589F4F0E94FB0C76
:10587000CE0185589F4F0E94BA2CEF964EAD5FAD7A
:10588000EF97C957DF4F68817981C758D04094EFAF
:10589000C92EDD24D394E12CF12C00E213E020E0AA
:1058A00030E0CE0185589F4F0E9430088111E5CF2E
:1058B00060E370E0CE0185589F4F0E94152ECD57B2
:1058C000DF4F48815981C358D040EF966EAD7FAD10
:1058D000EF9784E6C82ED12CE12CF12C08EE13E0D2
:1058E00020E030E0CE0185589F4F0E9430088111A2
:1058F000E6CF3ECECE018F5B9F4F0E94862CFACF23
:10590000CE018F5B9F4F0E94862CFACFCF92DF9201
:10591000EF92FF920F931F93CF93DF93EC019AE0E6
:10592000C92ED12CE12CF12C04EF11E020E030E065
:1059300040E050E060E870E0CE010E94C1078111B4
:10594000EECF6A8D7B8D16E9E12EF12C00E010E0A0
:1059500026E930E040E050E0CE010E949F0881112E
:10596000F0CFDF91CF911F910F91FF90EF90DF90DB
:10597000CF900895CF92DF92EF92FF920F931F93F3
:10598000CF93DF93EC014E815F816A817B8194E646
:10599000C92ED12CE12CF12C08EE13E020E030E0F0
:1059A000CE010E9430088111EECF4E815F816A8561
:1059B0007B8584E6C82ED12CE12CF12C08E813E17C
:1059C00020E030E0CE010E9430088111EECFDF915F
:1059D000CF911F910F91FF90EF90DF90CF9008959E
:1059E0008F929F92AF92BF92CF92DF92EF92FF92EF
:1059F0000F931F93CF93DF93EC014B016A8D7B8D47
:105A000018EEE12E13E0F12E00E010E024E630E085
:105A100040E050E0CE010E949F088111EFCF6A8DD7
:105A20007B8D14EFE12EFF24F39400E010E024E6D8
:105A300030E040E050E0CE010E949F088111EFCF9E
:105A4000688D798D16E9E12EF12C00E010E026E951
:105A500030E040E050E0CE010E949F088111F0CF7D
:105A6000688D798D16E9E12EF12C00E010E026E931
:105A700030E040E050E0CE010E949F088111F0CF5D
:105A8000688D798D16E9E12EF12C00E010E026E911
:105A900030E040E050E0CE010E949F088111F0CF3D
:105AA000488559856C857D85C12CD12C7601C394A0
:105AB0000CE211E020E030E0CE010E9430088111BC
:105AC000EFCF6A8D7B8D1CEDE12E15E0F12E00E00D
:105AD00010E026E930E040E050E0CE010E949F084F
